:020000040000fa
:080000000002040000000000f2
:020000040000fa
:100400006f0721000eff28000e0188000000000089
:100410000c000700a0d52000010020000f000700fd
:10042000000020000000e000020032000000020096
:100430000000000082030200000000000040da001b
:100440000000fe00a00720000000e00002003200d3
:10045000002020009001880000000600a102880012
:10046000800078000000eb001a003700e2804000b6
:1004700054a0b4009101ba00e280400054a0b4003e
:100480009102ba00e280400054a0b4000002eb00e8
:10049000472bde00f507b200a6018800602ce100c2
:1004a00008003a000049eb000201e80002003900b0
:1004b0003420ec0002f0a0008301e900f9ff3e00c7
:1004c000040037006128e100010032000082eb00e7
:1004d000040007001101ba000200e000e3ff3a0047
:1004e0000000060004d0a300e20f49001c00390000
:1004f000810278003549ba000201e80002003900a3
:100500003420ec0002f0a0008301e9000f0032006b
:100510002549ba000201e800020039003420ec004d
:1005200002f0a0008301e900080032000400e000ae
:100530000600320015c9ba000201e80002003900c5
:100540003420ec0002f0a0008301e9008180e80083
:1005500054a0b4000300e000e2ff3a0000000600ef
:100560009102ba00055978008301e900f7ff3200d3
:10057000c82ade00055978008301e900f3ff320044
:100580000400e000f1ff320011d9ba00eeff37009d
:100590000040da000000fe000000fa008001780050
:1005a0000200370081597800040178000202e90056
:1005b000e00f5100fbff3a000080fa000000060047
:1005c0000000fa009041780031c1510004003a0067
:1005d000e0cf5100020032000000e800f9ff3700d0
:1005e0000200fb000080fa00000006000000fa0094
:1005f000800078000041eb00b14f1100fdff3a0090
:100600000080ea00008040000080fa000000060040
:020000040000fa
:020000040005f5
:045fe000ddff0000e1
:020000040000fa
:020000040005f5
:045fe400cfff0000eb
:020000040000fa
:020000040005f5
:045fe8007fff000037
:020000040000fa
:020000040005f5
:045fec00bdff0000f5
:020000040000fa
:020000040005f5
:045ff000fbff0000b3
:020000040000fa
:020000040005f5
:045ff400cfff0000db
:020000040000fa
:10000800c8020000c8020000c8020000c8020000c0
:10001800c8020000c8020000c8020000c8020000b0
:10002800c8020000c8020000c8020000180700004b
:10003800c8020000c8020000c8020000c802000090
:10004800c8020000c8020000c8020000c802000080
:10005800c8020000c8020000c8020000c802000070
:10006800c8020000c8020000c8020000c802000060
:10007800c8020000c8020000c8020000c802000050
:10008800c8020000c8020000c8020000c802000040
:10009800c8020000c802000060080000c802000092
:1000a800c8020000c8020000c8020000c802000020
:1000b800c8020000c8020000c8020000c802000010
:1000c800c8020000c8020000c8020000c802000000
:1000d800c8020000c8020000c8020000c8020000f0
:1000e800c8020000c8020000c8020000c8020000e0
:1000f800c8020000c8020000c8020000c8020000d0
:10010800c8020000c8020000c8020000c8020000bf
:10011800c8020000c8020000c8020000c8020000af
:10012800c8020000c8020000c8020000c80200009f
:10013800c8020000c8020000c8020000c80200008f
:10014800c8020000c8020000c8020000c80200007f
:10015800c8020000c8020000c8020000c80200006f
:10016800c8020000c8020000c8020000c80200005f
:10017800c8020000c8020000c8020000c80200004f
:10018800c8020000c8020000c8020000c80200003f
:10019800c8020000c8020000c8020000c80200002f
:1001a800c8020000c8020000c8020000c80200001f
:1001b800c8020000c8020000c8020000c80200000f
:1001c800c8020000c8020000c8020000c8020000ff
:1001d800c8020000c8020000c8020000c8020000ef
:1001e800c8020000c8020000c8020000c8020000df
:1001f800c8020000c8020000c8020000c8020000cf
:10020800c8020000c8020000c8020000c8020000be
:10021800c8020000c8020000c8020000c8020000ae
:10022800c8020000c8020000c8020000c80200009e
:10023800c8020000c8020000c8020000c80200008e
:10024800c8020000c8020000c8020000c80200007e
:10025800c8020000c8020000c8020000c80200006e
:10026800c8020000c8020000c8020000c80200005e
:0c027800c8020000c8020000c80200001c
:020000040000fa
:10061000434d0000440d00000a0000004742000066
:100620000a0000003030000030360000363600008e
:100630003446000041450000363200000d0a00003b
:10064000004300002c30000030300000363600003f
:10065000363400004436000033460000410a0000f2
:100660000054000052590000494e0000470d0000a0
:100670000a0000003030000030360000363600003e
:100680003444000036330000464100000d0a0000eb
:10069000004c000065660000744200006c690000b8
:1006a0006e6b00000d0a000000410000434b00008b
:1006b0000a000000526900006768000074420000f0
:1006c0006c6900006e6b00000d0a0000004800001d
:1006d00065610000644c00006967000068740000f8
:1006e000730d00000a0000005769000070650000eb
:1006f000727300000d0a0000002400002424000092
:0407000000000000f5
:020000040000fa
:100704001a00fa00300f9800410f98000000eb0027
:10071400000f78000000eb00808188000000eb00ef
:10072400908188000000eb00a08188000000eb00ad
:10073400b08188000000eb00c08188000000eb005d
:10074400d08188000000eb00e08188000000eb000d
:10075400f08188000000eb00008288000000eb00bc
:10076400108288000000eb00208288000000eb006b
:10077400308288000000eb004082880010002000d6
:10078400508288000000eb00308188000000eb00fc
:100794002081880081020700a302070030040700bb
:1007a4004e040700a4020700dd020700f10207005f
:1007b40079040700fc02070010eea90013aea8009c
:1007c40002eea800232ea90005e1a8000000eb001a
:1007d40000808800010037000000000000808000d5
:1007e400010020004200200003002000820f50007e
:1007f400838f5800f8ff3e00000601000400370014
:1008040042003700b5003700ba00370085013700d1
:1008140013eea800a000200054020700034ea80015
:10082400a00020005102070013aea900a000200080
:100834004e02070002eea900132ea900803e2000fc
:1008440038020700132ea80000fa20003502070022
:1008540013aea800a00020004402070002eea80086
:10086400f5030700708288000e0078001e01b000b6
:10087400d137280003000900315f780000077800b1
:100884007100470024040700e2030700813e2000b2
:10089400803028009a030700000f78001e007800bb
:1008a400e10f500006003200132ea900803e200004
:1008b4001c020700132ea800007122001902070071
:1008c4001e007800e10f5000e7ff3a00e0302800f6
:1008d40011040700cf030700813e200020312800c7
:1008e40087030700000f78000e0078002e00b00088
:1008f400213128000e000900315f780000077800dc
:10090400100020000080880047013700c103070061
:100914001032280000040700813e20001033280014
:1009240077030700000f78001e007800e10f5000e5
:1009340009003200034ea90010002000a0838800a3
:1009440002003700a0002000080207008082800017
:10095400e10f5000fbff3a001e007800e10f500049
:100964000300320000808000e00f5000e7ff3a00ef
:1009740000808000e00f500001003a002a01370097
:10098400034ea8000000eb00a0838800020037009b
:10099400a0002000f501070080828000e00f5000d5
:1009a400fbff3a00803e200078030700000f780028
:1009b4001e007800e10f500009003200034ea90028
:1009c40010002000a083880002003700a00020004f
:1009d400e601070080828000e10f5000fbff3a002f
:1009e4001e007800e10f50000300320000808000f8
:1009f400e00f5000ebff3a0000808000e00f500051
:100a040001003a0008013700034ea8000000eb0083
:100a1400a083880002003700a0002000d301070053
:100a240080828000e00f5000fbff3a000e80e80057
:100a3400b903070077030700813e2000a033280094
:100a44002f030700000f78001e007800e10f50000c
:100a540009003200034ea90010002000a083880082
:100a640002003700a0002000c0010700808280003f
:100a7400e10f5000fbff3a001e007800e10f500028
:100a84000300320000808000e00f5000e7ff3a00ce
:100a940000808000e00f500001003a00e2003700bf
:100aa400034ea8000000eb00a0838800020037007a
:100ab400a0002000ad01070080828000e00f5000fc
:100ac400fbff3a00a0002000a801070013eea900d4
:100ad4002000200000808800d3003700400620005a
:100ae4009001070013aea800803e20009f0107007c
:100af400cd00370013aea90050002000c703070043
:100b0400e0022100d503070071818000803e2000af
:100b1400808f500004003400908180000000e800c1
:100b24009081880003003700d08180000000e80035
:100b3400d081880040002000b8030700e0022100b3
:100b4400c603070071818000803e2000808f500022
:100b540004003400a08180000000e800a081880027
:100b640003003700e08180000000e800e081880095
:100b740010002000a9030700e0022100b7030700ca
:100b840071818000803e2000808f5000040034007a
:100b9400b08180000000e800b081880003003700c5
:100ba400f08180000000e800f08188000000eb0084
:100bb4009a030700e0022100a80307007181800066
:100bc400803e2000808f500004003400c0818000eb
:100bd4000000e800c0818800030037000082800024
:100be4000000e8000082880091818000803e20009f
:100bf400808f50001400340010828000e00f5000f9
:100c040011003a0013cea9009034280042030700d3
:100c140000030700000000005135280040002100b7
:100c240066fe0700e00f5000fbff320010002000ba
:100c3400108288000000eb00908188000000eb0027
:100c4400d08188000b003700d1818000401f200034
:100c5400808f50000700340013cea8000000eb0082
:100c6400908188000000eb00d08188000000eb0038
:100c740010828800a1818000803e2000808f500077
:100c84001400340020828000e00f500011003a006c
:100c940013cea900a03528001f030700dd020700ba
:100ca40000000000513528004000210043fe0700e9
:100cb400e00f5000fbff320010002000208288006b
:100cc4000000eb00a08188000000eb00e0818800b8
:100cd4000b003700e1818000401f2000808f50000e
:100ce4000700340013cea8000000eb00a0818800a8
:100cf4000000eb00e08188000000eb002082880007
:100d0400b1818000803e2000808f500014003400a8
:100d140030828000e00f500011003a0013cea90089
:100d240070362800fc020700ba0207000000000029
:100d3400513528004000210020fe0700e00f50003c
:100d4400fbff320010002000308288000000eb001e
:100d5400b08188000000eb00f08188000b003700b0
:100d6400f1818000401f2000808f50000700340074
:100d740013cea8000000eb00b08188000000eb0057
:100d8400f08188000000eb0030828800c18180007f
:100d9400803e2000808f5000140034004082800088
:100da400e00f500011003a0013cea900403728008c
:100db400d9020700970207000000000051352800ff
:100dc40040002100fdfd0700e00f5000fbff320052
:100dd40010002000408288000000eb00c0818800e1
:100de4000000eb00008288000b00370001828000c5
:100df400401f2000808f50000700340013cea8004d
:100e04000000eb00c08188000000eb000082880035
:100e14000000eb0040828800803e2000d3000700e1
:100e240001003700000000006cfe37003600f800b7
:100e3400809fbe00829fbe00849fbe00869fbe002e
:100e44003200f8000020200090018800000000001b
:100e54000000fa0060818000e10f500005003a00b4
:100e64000000eb00608188000000eb0050818800e6
:100e74000d00370040818000e00f50000600340070
:100e8400408180000000e900408188000000eb0000
:100e940050818800040037000000eb004081880086
:100ea4001000200050818800917080000010200004
:100eb40000806000e00f50001d00320000808000c0
:100ec400e20f50000300320000808000e30f500066
:100ed40017003a0060002000d0020700e002210061
:100ee400de02070071818000803e2000808f500068
:100ef40004003400808180000000e80080818800c4
:100f0400020037000000eb008081880080818000af
:100f1400e40f5000030034003000200000808800fb
:100f24001000370020002000008088000d003700ea
:100f3400917080000010200000806000e00f5000dd
:100f440008003a0000808000e20f500003003200e5
:100f540000808000e30f500002003a0010002000df
:100f64000080880050828000e10f500007003a00a2
:100f740031020700708288000000eb005082880074
:100f84000000eb00608288000d0037006082800062
:100f940080007800b0272900808f500004003e00b4
:100fa400608280000000e80060828800040037004e
:100fb4000000eb006082880010002000508288004e
:100fc4007182800000302000808f500002003c00bd
:100fd40013cea90002003700a00020006300070020
:100fe400a0838000e10f500027003a009170800038
:100ff400000820008080600010c0b300e08f500023
:10100400010032000040eb000080fb006100600042
:101014004700dd0092708000f1f72f00810061002d
:10102400008070009070880080828000e00f500083
:1010340005003a00100020008082880060ea200049
:10104400908288001400370090828000e00f5000e6
:1010540004003400908280000000e900908288003f
:101064000d0037000000eb00a08388000000eb00b7
:10107400808288000000eb00908288000000eb0072
:1010840000808800040037000000eb0080828800a4
:101094000000eb00908288000068a9000080fa003c
:1010a4003200f9004f03be004f02be004f01be00e4
:1010b4004f00be003600f90000400600809fbe00cd
:1010c400821f78003200f800002020009001880080
:1010d400000000000000fa00b01180000040780019
:1010e40002f0b7003281800002d0bf00410021002d
:1010f4008100410080487800308180000000e800d1
:1011040030818800100020002081880003c8a900d5
:101114000080fa003200f9004f0178004f00be0051
:10112400004006000200fa00000f78009e007800dc
:101134000001200000017800110009008200d8009d
:10114400408188000000eb005081880010002000de
:10115400608188000000000050818000e00f500092
:10116400fdff32000080fa00000006000400fa00cf
:10117400100798000000eb00000f78000100370012
:101184001e0fe8001e0090009e007800808f500023
:10119400fbff35000080fa00000006000000fa00a2
:1011a400213a800000fe2f0000806000203a880071
:1011b40040062000edff0700313a800000e02f00d8
:1011c400808060004004200000807000303a880075
:1011d40040062000e5ff0700213a8000f0f32f00cd
:1011e40000806000203a880040062000dfff0700ee
:1011f4004567a90040062000dcff0700213a800073
:10120400f0ff280000806000203a8800400620009b
:10121400d6ff07004567a80040062000d3ff07005b
:101224000080fa00000006000000fa00c3e8a800ed
:101234000080fa00000006000000fa0005e1a900a1
:1012440005a1a90004c1a90021088000f0fc2f0019
:101254008080600000022000008070002008880068
:101264000441a9000421a9000000eb000008880043
:10127400c04524001008880001428000f0ff2800c7
:10128400808060000000240000807000004288001c
:101294000068a9002068a8000080fa000000060089
:1012a4000400fa00100798001e009000cefc07000e
:1012b400000f78000e00370000000000911180003c
:1012c4000020200000806000e00f5000fbff3a0087
:1012d4001e009000104078000000fb00a011880060
:1012e4001e0090000000e800100798001e0fe9009f
:1012f4001e007800e00f5000efff3a0000000000ed
:10130400911180000010200000806000e00f500068
:10131400fbff32000000eb000080fa000000060032
:101324000000fa0011aea900014ea90000eea900c8
:1013340011cea90011eea90013aea800a000200050
:101344008aff0700034ea800a000200087ff0700c3
:1013540002eea800a000200084ff070013cea8001e
:10136400a000200081ff070013eea8000080fa000f
:10137400000006000000fa00000ea8000e0ea800ef
:10138400002ea8000e2ea800104ea8001e4ea80085
:10139400106ea8001e6ea800200ea8002e0ea80035
:1013a4000080fa00000006000000fa00212ea900c7
:1013b400204ea8002e4ea8001f0ea900110ea80052
:1013c400112ea900132ea8000080fa0000000600c8
:1013d4000200fa0013aea9000000eb00000f780031
:1013e40003003700803e200060ff07001e0fe80066
:1013f400703e20009e007800808f5000f9ff34007a
:1014040013aea8000000eb00000f780003003700c3
:10141400803e200055ff07001e0fe800703e2000ac
:101424009e007800808f5000f9ff340013aea900ad
:101434000000eb00000f780003003700803e20001e
:101444004aff07001e0fe800703e20009e0078004f
:10145400808f5000f9ff340013eea9000000eb0068
:10146400000f780003003700803e20003fff070094
:101474001e0fe800703e20009e007800808f500010
:10148400f9ff340013eea8000000eb00000f780011
:1014940003003700803e200034ff07001e0fe800e1
:1014a400703e20009e007800808f5000f9ff3400c9
:1014b40013eea9000000eb00000f780003003700d2
:1014c400803e200029ff07001e0fe800703e200028
:1014d4009e007800808f5000f9ff340002eea900ce
:1014e4000000eb00000f780003003700803e20006e
:1014f4001eff07001e0fe800703e20009e007800cb
:10150400808f5000f9ff340002eea8000000eb00c9
:10151400000f780003003700803e200013ff07000f
:101524001e0fe800703e20009e007800808f50005f
:10153400f9ff340002eea9000000eb00000f780070
:1015440003003700803e200008ff07001e0fe8005c
:10155400703e20009e007800808f5000f9ff340018
:1015640013cea9000000eb00000f78000300370041
:10157400803e2000fdfe07001e0fe800703e2000a4
:101584009e007800808f5000f9ff340013cea8002d
:101594000000eb00000f780003003700803e2000bd
:1015a400f2fe07001e0fe800703e20009e00780047
:1015b400808f5000f9ff340013cea9000000eb0027
:1015c400000f780003003700803e2000e7fe07008c
:1015d4001e0fe800703e20009e007800808f5000af
:1015e400f9ff3400034ea9000000eb00000f78005f
:1015f40003003700803e2000dcfe07001e0fe800d9
:10160400703e20009e007800808f5000f9ff340067
:10161400034ea8000000eb00000f78000300370021
:10162400803e2000d1fe07001e0fe800703e20001f
:101634009e007800808f5000f9ff3400034ea9000b
:101644000000eb00000f780003003700803e20000c
:10165400c6fe07001e0fe800703e20009e007800c2
:10166400808f5000f9ff34000080fa00000006006b
:101674000400fa000000eb00000f78000000eb000b
:10168400e60007000080eb00100798000e80e800d9
:10169400f20007009e009000800c2000808f500014
:1016a400010034001e0fe80040002000db000700aa
:1016b4000080eb00100798000e80e800e7000700a8
:1016c4009e009000800c2000808f500004003400a5
:1016d4001e007800e00f5000010034001e0fe800e7
:1016e4001e007800e20f500002003a0002eea9004a
:1016f4000100370002eea8000080fa000000060096
:101704000600fa0010079800210798000000eb007b
:10171400000f7800ae009000000120000001780066
:10172400110009008200d800408188000000eb000d
:101734005081880010002000608188000a00370072
:101744009e009000400021009cfb0700e00f500029
:1017540003003a0010002000000f78000200370058
:101764000000eb00000f78001e007800e00f50002e
:1017740003003a0050818000e00f5000f0ff320077
:101784001e0078000080fa00000006000400fa0041
:10179400100798000000eb00000f78009e009000f6
:1017a4000001200000017800110009008200d80027
:1017b400408188000000eb00508188001000200068
:1017c400608188000a0037009170800000102000ba
:1017d40000806000e00f5000030032001000200081
:1017e400000f7800020037000000eb00000f7800c3
:1017f4001e007800e00f500003003a005081800082
:10180400e00f5000f0ff32001e0078000080fa0064
:10181400000006000000fa00020220008000eb0035
:10182400400021005bfb07000000eb0030818800d2
:101834000080fa00000006000200fa00232ea8002f
:1018440080002000750007000e0078008300070068
:10185400232ea9001e0078000080fa000000060074
:101864000000fa0031e2a90081118000f0cf2f00be
:1018740000806000801188008111800090ff2f009b
:1018840000806000801188003002a9003062a90045
:1018940091118000f0f32f00008060009011880007
:1018a40071428000f08f2f00808060000060200073
:1018b400008070007042880003c8a90003e8a900f2
:1018c40023c8a80040022000c011880031e2a8000b
:1018d4003342a8000080fa00000006000000fa006d
:1018e4003136800000f82f0080806000c0022000a4
:1018f400008070003036880041348000f00f2c00e6
:101904008080600000302000008070004034880037
:101914000080fa00000006000400fa001007980096
:101924001e00900030fb0700000f78000e00370007
:101934000000000091118000002020000080600061
:10194400e00f5000fbff3a001e00900010407800aa
:101954000000fb00a01188001e0090000000e800b9
:10196400100798001e0fe9001e007800e00f5000d9
:10197400efff3a00000000009111800000102000e9
:1019840000806000e00f5000fbff32000000eb001d
:101994000080fa00000006000000fa0021e3a9001c
:1019a4002143a80011198000f0ff2100008060008d
:1019b4001019880025e3a9000040eb0024e3b700d8
:1019c4004119800000fe2f00008060007000b30009
:1019d4004019880011198000f0cf2f0000806000aa
:1019e400101988002343a9002043a900011980008d
:1019f400f0cf2f0000806000001988003303a90095
:101a04001119800030f82f00008060001019880040
:101a140021e3a8000080fa00000006000200fa009a
:101a2400000f780021e3a9001e0078000040780030
:101a34007f4060000080fb007f006000421980004e
:101a440001fe2f00810061000080700040198800b1
:101a540021e3a8000080fa00000006000200fa005a
:101a6400000f78000068a90005e1a9002023a80060
:101a740040062000bdfd07002023a900000000004f
:101a84000019800061006000e00f5000fcff32008c
:101a94002003a90000188000800078001e00780050
:101aa4000108780005e1a8000080fa0000000600a3
:020000040000fa
:101ab40000100000540000008000000054100000da
:101ac400220000008200000048656c006c6f20005a
:101ad400576f72006c6421000000000000000000d9
:101ae40000000000000000000000000000000000f2
:0c1af400000000000000000000000000e6
:00000001FF
