:020000040000fa
:080000000002040000000000f2
:020000040000fa
:100400008f0621000eff28000e018800000000006a
:100410000c00070060b22000010020000f00070060
:10042000000020000000e000020032000000020096
:100430000000000094030200000000000040da0009
:100440000000fe00c00820000000e00002003200b2
:10045000002020009001880000000600a102880012
:10046000800078000000eb001a003700e2804000b6
:1004700054a0b4009101ba00e280400054a0b4003e
:100480009102ba00e280400054a0b4000002eb00e8
:10049000472bde00f507b200a6018800602ce100c2
:1004a00008003a000049eb000201e80002003900b0
:1004b0003420ec0002f0a0008301e900f9ff3e00c7
:1004c000040037006128e100010032000082eb00e7
:1004d000040007001101ba000200e000e3ff3a0047
:1004e0000000060004d0a300e20f49001c00390000
:1004f000810278003549ba000201e80002003900a3
:100500003420ec0002f0a0008301e9000f0032006b
:100510002549ba000201e800020039003420ec004d
:1005200002f0a0008301e900080032000400e000ae
:100530000600320015c9ba000201e80002003900c5
:100540003420ec0002f0a0008301e9008180e80083
:1005500054a0b4000300e000e2ff3a0000000600ef
:100560009102ba00055978008301e900f7ff3200d3
:10057000c82ade00055978008301e900f3ff320044
:100580000400e000f1ff320011d9ba00eeff37009d
:100590000040da000000fe000000fa008001780050
:1005a0000200370081597800040178000202e90056
:1005b000e00f5100fbff3a000080fa000000060047
:1005c0000000fa009041780031c1510004003a0067
:1005d000e0cf5100020032000000e800f9ff3700d0
:1005e0000200fb000080fa00000006000000fa0094
:1005f000800078000041eb00b14f1100fdff3a0090
:100600000080ea00008040000080fa000000060040
:020000040000fa
:020000040005f5
:045fe000ddff0000e1
:020000040000fa
:020000040005f5
:045fe400cfff0000eb
:020000040000fa
:020000040005f5
:045fe8007fff000037
:020000040000fa
:020000040005f5
:045fec00bdff0000f5
:020000040000fa
:020000040005f5
:045ff000fbff0000b3
:020000040000fa
:020000040005f5
:045ff400cfff0000db
:020000040000fa
:10000800c8020000c8020000c8020000c8020000c0
:10001800c8020000c8020000c8020000c8020000b0
:10002800c8020000c8020000c8020000ec05000079
:10003800c8020000c8020000c8020000c802000090
:10004800c8020000c8020000c8020000c802000080
:10005800c8020000c8020000c8020000c802000070
:10006800c8020000c8020000c8020000c802000060
:10007800c8020000c8020000c8020000c802000050
:10008800c8020000c8020000c8020000c802000040
:10009800c8020000c802000076060000c80200007e
:1000a800c8020000c8020000c8020000c802000020
:1000b800c8020000c8020000c8020000c802000010
:1000c800c8020000c8020000c8020000c802000000
:1000d800c8020000c8020000c8020000c8020000f0
:1000e800c8020000c8020000c8020000c8020000e0
:1000f800c8020000c8020000c8020000c8020000d0
:10010800c8020000c8020000c8020000c8020000bf
:10011800c8020000c8020000c8020000c8020000af
:10012800c8020000c8020000c8020000c80200009f
:10013800c8020000c8020000c8020000c80200008f
:10014800c8020000c8020000c8020000c80200007f
:10015800c8020000c8020000c8020000c80200006f
:10016800c8020000c8020000c8020000c80200005f
:10017800c8020000c8020000c8020000c80200004f
:10018800c8020000c8020000c8020000c80200003f
:10019800c8020000c8020000c8020000c80200002f
:1001a800c8020000c8020000c8020000c80200001f
:1001b800c8020000c8020000c8020000c80200000f
:1001c800c8020000c8020000c8020000c8020000ff
:1001d800c8020000c8020000c8020000c8020000ef
:1001e800c8020000c8020000c8020000c8020000df
:1001f800c8020000c8020000c8020000c8020000cf
:10020800c8020000c8020000c8020000c8020000be
:10021800c8020000c8020000c8020000c8020000ae
:10022800c8020000c8020000c8020000c80200009e
:10023800c8020000c8020000c8020000c80200008e
:10024800c8020000c8020000c8020000c80200007e
:10025800c8020000c8020000c8020000c80200006e
:10026800c8020000c8020000c8020000c80200005e
:0c027800c8020000c8020000c80200001c
:020000040000fa
:10061000434d0000440d00000a0000004742000066
:100620000a0000003030000030360000363600008e
:100630003446000041450000363200000d0a00003b
:10064000004300002c30000030300000363600003f
:10065000363400004436000033460000410a0000f2
:100660000054000052590000494e0000470d0000a0
:100670000a0000003030000030360000363600003e
:100680003444000036330000464100000d0a0000eb
:10069000004c000065660000744200006c690000b8
:1006a0006e6b00000d0a000000410000434b00008b
:1006b0000a000000526900006768000074420000f0
:1006c0006c6900006e6b00000d0a0000004800001d
:1006d00065610000644c00006967000068740000f8
:1006e000730d00000a0000005769000070650000eb
:1006f000727300000d0a0000004800006f720000d5
:100700006e4f00006e0d00000a000000486f0000f0
:10071000726e00004f660000660d00000a000000c7
:08072000242400002400000065
:020000040000fa
:100728001a00fa00300f9800410f98000000eb0003
:10073800000f78000000eb00808188000000eb00cb
:10074800908188000000eb00a08188000000eb0089
:10075800b08188000000eb00c08188000000eb0039
:10076800d08188000000eb00e08188000000eb00e9
:10077800f08188000000eb00008288001000200053
:10078800108288000000eb00308188000000eb0038
:10079800208188008b010700ad01070018030700be
:1007a80036030700ae010700e7010700fb01070059
:1007b800610307000602070013aea80002eea800b6
:1007c800232ea90005e1a80013aea900a00020006f
:1007d8007001070002eea90000fa20005b01070083
:1007e80013aea800a00020006a01070002eea800ce
:1007f800f9020700308288000000eb008081880041
:10080800ec0207000e0078001e01b0000139280034
:1008180003000900315f7800000778007100470085
:1008280025030700017d200080302800be02070054
:10083800000f78001e007800e00f500006003a0014
:10084800132ea900803e200040010700132ea800a7
:10085800803821003d010700d60207001e007800fd
:10086800e10f5000e7ff3a00e030280012030700cc
:10087800017d200020312800ab020700000f78001e
:100888000e0078002e00b000213128000e0009006b
:10089800315f7800000778000000eb0000808800d6
:1008a80000808000e10f500039003200e10f500055
:1008b80003003900e20f500068003200f8ff3700eb
:1008c800bc02070010322800fb020700017d20004f
:1008d8001033280094020700000f78001e007800eb
:1008e800e10f50000a003200034ea900803e2000ac
:1008f80016010700034ea800b400370013eea80045
:10090800a000200023010700034ea90001003700c2
:10091800000000009170800000102000008060003e
:10092800e00f5000f5ff3200a00020001901070079
:10093800034ea800a0002000160107009d02070032
:100948000000eb00000f78000900370013cea90063
:1009580040062000fd0007000e80e800d6020700d0
:1009680081bb2000a03328006f020700000f780029
:100978001e007800e10f5000f4ff3a0013cea800e3
:1009880013eea90010002000008088008f003700b7
:10099800803e2000ed00070090342800c6020700c2
:1009a80081bb2000503528005f020700000f780047
:1009b80080bb2000e5000700a0352800be02070024
:1009c80081bb20005035280057020700000f78002f
:1009d80080bb2000dd00070070362800b602070043
:1009e80081bb2000503528004f020700000f780017
:1009f80080bb2000d500070040372800ae02070062
:100a080081bb20005035280047020700000f7800fe
:100a180080bb2000cd000700d0372800a6020700c1
:100a280081bb2000503528003f020700000f7800e6
:100a380080bb2000c5000700603828009e02070020
:100a480081bb20005035280037020700000f7800ce
:100a580080bb2000bd000700cfff370050002000fa
:100a6800d6020700e0022100e4020700718180003d
:100a780060542000808f5000040034009081800072
:100a88000000e8009081880003003700d0818000d2
:100a98000000e800d081880040002000c70207005d
:100aa800e0022100d5020700718180006054200017
:100ab800808f500004003400a08180000000e8000e
:100ac800a081880003003700e08180000000e80072
:100ad800e081880010002000b8020700e002210031
:100ae800c60207007181800060542000808f50008a
:100af80004003400b08180000000e800b081880064
:100b080003003700f08180000000e800f0818800d1
:100b18000000eb00a9020700e0022100b70207006d
:100b28007181800060542000808f500004003400e0
:100b3800c08180000000e800c08188000300370001
:100b4800008280000000e800008288009181800017
:100b5800803e2000808f50000c00340013cea90086
:100b6800903428005402070081bb2000503528002b
:100b7800ed010700000f78000000eb00908188006d
:100b88000000eb00d081880009003700d181800087
:100b9800401f2000808f50000500340013cea800ad
:100ba8000000eb00908188000000eb00d0818800f5
:100bb80081bb200050352800db010700000f7800ba
:100bc800803e20006100070035ff370034ff370002
:100bd8003600f800809fbe00829fbe00849fbe0042
:100be800869fbe003200f800002020009001880097
:100bf800000000000000fa0060818000e10f500052
:100c080005003a000000eb00608188000000eb005e
:100c1800508188000d00370040818000e00f5000af
:100c280006003400408180000000e900408188000f
:100c38000000eb0050818800040037000000eb0042
:100c480040818800100020005081880010828000b8
:100c5800e10f500007003a00df01070030828800ea
:100c68000000eb00108288000000eb002082880062
:100c78000d0037002082800080007800b02729000e
:100c8800808f500004003e00208280000000e800b1
:100c980020828800040037000000eb0020828800d2
:100ca800100020001082880031828000003020006f
:100cb800808f500002003c0013cea90001003700cd
:100cc8000068a9000080fa003200f9004f03be0056
:100cd8004f02be004f01be004f00be003600f900b3
:100ce80000400600809fbe00821f78003200f80096
:100cf8000020200090018800000000000000fa0099
:100d0800b01180000040780002f0b7003281800006
:100d180002d0bf00410021008100410080487800d6
:100d2800308180000000e800308188001000200039
:100d38002081880003c8a9000080fa003200f90069
:100d48004f0178004f00be00004006000200fa0084
:100d5800000f78009e007800000120000001780054
:100d6800110009008200d800408188000000eb00d3
:100d78005081880010002000608188000000000079
:100d880050818000e00f5000fdff32000080fa0023
:100d9800000006000400fa00100798000000eb00ad
:100da800000f7800010037001e0fe8001e009000b9
:100db8009e007800808f5000fbff35000080fa000d
:100dc800000006000000fa00213a800000fe2f0013
:100dd80000806000203a880040062000edff0700f0
:100de800313a800000e02f0080806000400420003d
:100df80000807000303a880040062000e5ff0700b8
:100e0800213a8000f0f32f0000806000203a88002b
:100e180040062000dfff07004567a90040062000c4
:100e2800dcff0700213a8000f0ff28000080600006
:100e3800203a880040062000d6ff07004567a80032
:100e480040062000d3ff07000080fa0000000600db
:100e58000000fa00c3e8a8000080fa0000000600bd
:100e68000000fa0005e1a90005a1a90004c1a90034
:100e780021088000f0fc2f00808060000002200024
:100e880000807000200888000441a9000421a900fe
:100e98000000eb0000088800c04524001008880006
:100ea80001428000f0ff28008080600000002400dc
:100eb80000807000004288000068a9002068a8002f
:100ec8000080fa00000006000400fa0010079800ed
:100ed8001e009000c3fd0700000f78000e003700c9
:100ee80000000000911180000020200000806000b8
:100ef800e00f5000fbff3a001e0090001040780001
:100f08000000fb00a01188001e0090000000e8000f
:100f1800100798001e0fe9001e007800e00f50002f
:100f2800efff3a000000000091118000001020003f
:100f380000806000e00f5000fbff32000000eb0073
:100f48000080fa00000006000000fa0011aea900b7
:100f5800014ea90000eea90011cea90011eea900ca
:100f680013aea800a00020008aff0700034ea800c7
:100f7800a000200087ff070002eea800a0002000c4
:100f880084ff070013cea800a000200081ff0700ff
:100f980013eea8000080fa00000006000000fa0026
:100fa800000ea8000e0ea800002ea8000e2ea80005
:100fb800104ea8001e4ea800106ea8001e6ea800b5
:100fc800200ea8002e0ea8000080fa0000000600df
:100fd8000000fa00212ea900204ea8002e4ea800dd
:100fe8001f0ea900110ea800112ea900132ea8008b
:100ff8000080fa00000006000200fa0013aea90003
:101008000000eb00000f780003003700803e20004e
:1010180060ff07001e0fe800703e20009e00780069
:10102800808f5000f9ff340013aea8000000eb00d9
:10103800000f780003003700803e200055ff0700ae
:101048001e0fe800703e20009e007800808f500040
:10105800f9ff340013aea9000000eb00000f780080
:1010680003003700803e20004aff07001e0fe800fb
:10107800703e20009e007800808f5000f9ff3400f9
:1010880013eea9000000eb00000f78000300370002
:10109800803e20003fff07001e0fe800703e200042
:1010a8009e007800808f5000f9ff340013eea800ee
:1010b8000000eb00000f780003003700803e20009e
:1010c80034ff07001e0fe800703e20009e007800e5
:1010d800808f5000f9ff340013eea9000000eb00e8
:1010e800000f780003003700803e200029ff07002a
:1010f8001e0fe800703e20009e007800808f500090
:10110800f9ff340002eea9000000eb00000f7800a0
:1011180003003700803e20001eff07001e0fe80076
:10112800703e20009e007800808f5000f9ff340048
:1011380002eea8000000eb00000f78000300370063
:10114800803e200013ff07001e0fe800703e2000bd
:101158009e007800808f5000f9ff340002eea9004d
:101168000000eb00000f780003003700803e2000ed
:1011780008ff07001e0fe800703e20009e00780060
:10118800808f5000f9ff340013cea9000000eb0057
:10119800000f780003003700803e2000fdfe0700a6
:1011a8001e0fe800703e20009e007800808f5000df
:1011b800f9ff340013cea8000000eb00000f780000
:1011c80003003700803e2000f2fe07001e0fe800f3
:1011d800703e20009e007800808f5000f9ff340098
:1011e80013cea9000000eb00000f780003003700c1
:1011f800803e2000e7fe07001e0fe800703e20003a
:101208009e007800808f5000f9ff3400034ea9003b
:101218000000eb00000f780003003700803e20003c
:10122800dcfe07001e0fe800703e20009e007800dc
:10123800808f5000f9ff3400034ea8000000eb0037
:10124800000f780003003700803e2000d1fe070021
:101258001e0fe800703e20009e007800808f50002e
:10126800f9ff3400034ea9000000eb00000f7800de
:1012780003003700803e2000c6fe07001e0fe8006e
:10128800703e20009e007800808f5000f9ff3400e7
:101298000080fa00000006000400fa000000eb00dd
:1012a800000f78000000eb00c40007000080eb008e
:1012b800100798000e80e800d00007009e009000fc
:1012c800800c2000808f5000010034001e0fe800c1
:1012d80040002000b90007000080eb0010079800cc
:1012e8000e80e800c50007009e009000800c2000da
:1012f800808f5000040034001e007800e00f50007a
:10130800010034001e0fe8001e007800e20f5000b4
:1013180002003a0002eea9000100370002eea80020
:101328000080fa00000006000600fa001007980086
:10133800210798000000eb00000f7800ae00900035
:101348000001200000017800110009008200d80087
:10135800408188000000eb005081880010002000c8
:10136800608188000a0037009e009000400021003c
:1013780091fc0700e00f500003003a001000200025
:10138800000f7800020037000000eb00000f780023
:101398001e007800e00f500003003a0050818000e2
:1013a800e00f5000f0ff32001e0078000080fa00c5
:1013b800000006000000fa00020220008000eb0096
:1013c8004000210072fc07000000eb00308188001b
:1013d8000080fa00000006000200fa00232ea80090
:1013e80080002000750007000e00780083000700c9
:1013f800232ea9001e0078000080fa0000000600d5
:101408000000fa0031e2a90081118000f0cf2f001e
:1014180000806000801188008111800090ff2f00fb
:1014280000806000801188003002a9003062a900a5
:1014380091118000f0f32f00008060009011880067
:1014480071428000f08f2f008080600000602000d3
:10145800008070007042880003c8a90003e8a90052
:1014680023c8a80040022000c011880031e2a8006b
:101478003342a8000080fa00000006000000fa00cd
:101488003136800000f82f0080806000c002200004
:10149800008070003036880041348000f00f2c0046
:1014a8008080600000302000008070004034880098
:1014b8000080fa00000006000400fa0010079800f7
:1014c8001e00900047fc0700000f78000e00370050
:1014d80000000000911180000020200000806000c2
:1014e800e00f5000fbff3a001e009000104078000b
:1014f8000000fb00a01188001e0090000000e8001a
:10150800100798001e0fe9001e007800e00f500039
:10151800efff3a0000000000911180000010200049
:1015280000806000e00f5000fbff32000000eb007d
:101538000080fa00000006000000fa0021e3a9007c
:101548002143a80011198000f0ff210000806000ed
:101558001019880025e3a9000040eb0024e3b70038
:101568004119800000fe2f00008060007000b30069
:101578004019880011198000f0cf2f00008060000a
:10158800101988002343a9002043a90001198000ed
:10159800f0cf2f0000806000001988003303a900f5
:1015a8001119800030f82f000080600010198800a1
:1015b80021e3a8000080fa00000006000200fa00fb
:1015c800000f780021e3a9001e0078000040780091
:1015d8007f4060000080fb007f00600042198000af
:1015e80001fe2f0081006100008070004019880012
:1015f80021e3a8000080fa00000006000200fa00bb
:10160800000f78002023a80040062000e1fd070015
:101618002023a9000000000000198000610060007c
:10162800e00f5000fcff32002003a90000188000e2
:10163800800078001e007800010878000080fa0019
:041648000000060098
:020000040000fa
:10164c00001000004800000080000000481000005e
:10165c00200000008200000048656c006c6f2000c8
:10166c00576f72006c642100000000000000000045
:10167c00000000000000000000000000000000005e
:08168c00000000000000000056
:00000001FF
