:020000040000fa
:080000000002040000000000f2
:020000040000fa
:10040000cf0421000eff28000e018800000000002c
:100410000c000700e0a52000010020000f000700ed
:10042000000020000000e000020032000000020096
:100430000000000082080200000000000040da0016
:100440000000fe00600120000000e0000200320019
:10045000002020009001880000000600a102880012
:10046000800078000000eb001a003700e2804000b6
:1004700054a0b4009101ba00e280400054a0b4003e
:100480009102ba00e280400054a0b4000002eb00e8
:10049000472bde00f507b200a6018800602ce100c2
:1004a00008003a000049eb000201e80002003900b0
:1004b0003420ec0002f0a0008301e900f9ff3e00c7
:1004c000040037006128e100010032000082eb00e7
:1004d000040007001101ba000200e000e3ff3a0047
:1004e0000000060004d0a300e20f49001c00390000
:1004f000810278003549ba000201e80002003900a3
:100500003420ec0002f0a0008301e9000f0032006b
:100510002549ba000201e800020039003420ec004d
:1005200002f0a0008301e900080032000400e000ae
:100530000600320015c9ba000201e80002003900c5
:100540003420ec0002f0a0008301e9008180e80083
:1005500054a0b4000300e000e2ff3a0000000600ef
:100560009102ba00055978008301e900f7ff3200d3
:10057000c82ade00055978008301e900f3ff320044
:100580000400e000f1ff320011d9ba00eeff37009d
:100590000040da000000fe00889fbe008a9fbe0077
:1005a0008c1f7800a5000700ac00330003866c00a8
:1005b0006450e1002e0032006420e100330032007c
:1005c0006150e1002f0032006120e1003100320073
:1005d00085855500eb07b0000900200008042000c5
:1005e000050037000804440089844c000a003100eb
:1005f0000603430087834b000001530081815b00a9
:10060000f8ff33000203be000800a0000804440005
:1006100089844c00f6ff3900c639dd008301730080
:1006200001003200130020008904d1000884d300a7
:100630000998a300050032000800a7000300a000ed
:100640008904d1000884d3008b05e8008904d10017
:100650000884d3000001eb000281d2003c000700b7
:1006600001f0a1000cf0a70001f0a0008400370009
:100670006420e100860032000801be000200be00d6
:10068000f7ff37006120e100810032006000b80010
:10069000f3ff37000000200001f82700f0ff3700cb
:1006a0000001be00500007000470a70003f0a10085
:1006b0006509b100160032000d0035006828e10020
:1006c00006003500f0ff2f00f1ff27000300e000d7
:1006d00013003b000100280000000500000040005e
:1006e000818048008502e900fcff3a0008003700dd
:1006f000f88f420002003c008000eb000000050083
:100700008100d1000080d3008502e800fcff3a00a0
:100710000300e00002003b0060001000e0801800d1
:10072000000006004f89de0082017800e0003700fb
:100730000001eb00b70007000400320002002000b7
:1007400003f8230001f0a700540007000000060092
:1007500081002000618055000b003d000b0020004f
:1007600061fe2f000100e1001d0034008281710054
:10077000610164008904d1000884d3000000e8000e
:10078000faff3a007100200061006400030070006d
:10079000020060000900320061044400e0844c0063
:1007a0000988a500050032008b05e8006808e10013
:1007b00002003a008904d1000884d300f20f20001f
:1007c0000258e10005003d00c75ddd00f907b200f9
:1007d0008980750008007800000006000bf82700eb
:1007e0008b00780000000500c70ade00f107b200a8
:1007f000f50fb20008003200e1cf420002003200e3
:100800000170a00024000500810f7000010032007b
:100810000408050044000500810f700002003a0042
:10082000140005008502e9000000400081c0480076
:10083000fcff3b000170a000240005000004be0086
:10084000e9ff07000003be000405be000200be0071
:10085000e5ff0700844f7500000006000200be009f
:100860006450e100050036006420e100020036001b
:100870000968a30001003a000800be000160a00062
:100880004f0678004f05be004f04be000000060072
:10089000f0ff2f00f1ff2700f9ff370003f0a2005f
:1008a000889fbe008a9fbe008c1f7800e3ff070070
:1008b000eaff33006450e1004f0032006420e100a1
:1008c0005200320003826c0007003b000905d00093
:1008d0000306d000820f54000c065d0002003900b0
:1008e00002003200890178000306780085825500f5
:1008f00004003d000003fd008103fd008502ea00c5
:100900008b854200840f720002003b0060001000e3
:10091000e08018006011b8000005eb007a28e100c3
:100920000a00390006007800c75ddd00f707b20055
:10093000878075002d003700828171000a017800e0
:10094000610560008180d1000080d3008502e9004c
:10095000f9ff3b00060440008784480002003b008a
:1009600060041400e0841c000988a3000700320022
:100970008a81710082817100610164008904d10063
:100980000884d3008b05e800170037000978a3001e
:1009900013003a000b00e000130034008b05e9005f
:1009a0000804440089844c000a4474000978a300b8
:1009b0000d003a000b00e000070034008b05e90051
:1009c0000804440089844c0001003a000b00200018
:1009d0000978a300f7ff32000001eb0002003700a6
:1009e000828171000a01780059ff07000cf0a7000e
:1009f00001f0a000a2ff37006420e10002003a00ed
:100a0000838f6c00a2ff33000801be000200be000d
:100a10009bff3700889fbe008a9fbe000003be0078
:100a200071ff0700850578008281520002002000d6
:100a30006220e10004003a00f307b1000400350031
:100a40007718e100040035000600be0014003700ee
:100a50006000b8000f003700f50f2000faff2f00ec
:100a60008502d1000a85d3008301e900fcff3b0029
:100a70008184620000046500890f7400f2ff320077
:100a80008582ea000a85ea0081846200000465002c
:100a90002fff070007f0a70001f0a0000081eb0086
:100aa0000200e0004f05be004f04be00000006003b
:100ab000881f7800030478000300e00007003d0071
:100ac00060001000e080180060011900e08119004a
:100ad00002003b0001f02d00030037000400070076
:100ae00008f0a70001f0a0004f0478000000060005
:100af000889fbe008a9fbe000082700004027100c1
:100b000004827100260032000004be000200be0014
:100b10006011b8006b092000950220000182cf000f
:100b20000a0039000541b1000082cf0007003900fa
:100b30000541b1000982cf00040039000541b10030
:100b40000882cf00010039000541b1000542520082
:100b5000120032000a003b008281710061016400d2
:100b60008100d1000080d3008984d3000884d300a1
:100b70008b05e8000442e800f7ff3a000700370061
:100b80000804440089844c0000004800818048002b
:100b90008b05e9000442e900f9ff3a00ecfe07008a
:100ba0004f05be004f04be00000006000000fa0022
:100bb0008001780002003700815978000401780034
:100bc0000202e900e00f5100fbff3a000080fa004a
:100bd000000006000000fa009041780031c1510089
:100be00004003a00e0cf5100020032000000e800ab
:100bf000f9ff37000200fb000080fa000000060049
:100c00000000fa00800078000041eb00b14f1100b5
:100c1000fdff3a000080ea00008040000080fa00fa
:040c200000000600ca
:020000040000fa
:10000800c8020000c8020000c8020000c8020000c0
:10001800c8020000c8020000c8020000c8020000b0
:10002800c8020000c8020000c80200002a09000037
:10003800c8020000c8020000c8020000c802000090
:10004800c8020000c8020000c8020000c802000080
:10005800c8020000c8020000c8020000c802000070
:10006800c8020000c8020000c8020000c802000060
:10007800c8020000c8020000c8020000c802000050
:10008800c8020000c8020000c8020000c802000040
:10009800c8020000c80200008e090000c802000063
:1000a800c8020000c8020000c8020000c802000020
:1000b800c8020000c8020000c8020000c802000010
:1000c800c8020000c8020000c8020000c802000000
:1000d800c8020000c8020000c8020000c8020000f0
:1000e800c8020000c8020000c8020000c8020000e0
:1000f800c8020000c8020000c8020000c8020000d0
:10010800c8020000c8020000c8020000c8020000bf
:10011800c8020000c8020000c8020000c8020000af
:10012800c8020000c8020000c8020000c80200009f
:10013800c8020000c8020000c8020000c80200008f
:10014800c8020000c8020000c8020000c80200007f
:10015800c8020000c8020000c8020000c80200006f
:10016800c8020000c8020000c8020000c80200005f
:10017800c8020000c8020000c8020000c80200004f
:10018800c8020000c8020000c8020000c80200003f
:10019800c8020000c8020000c8020000c80200002f
:1001a800c8020000c8020000c8020000c80200001f
:1001b800c8020000c8020000c8020000c80200000f
:1001c800c8020000c8020000c8020000c8020000ff
:1001d800c8020000c8020000c8020000c8020000ef
:1001e800c8020000c8020000c8020000c8020000df
:1001f800c8020000c8020000c8020000c8020000cf
:10020800c8020000c8020000c8020000c8020000be
:10021800c8020000c8020000c8020000c8020000ae
:10022800c8020000c8020000c8020000c80200009e
:10023800c8020000c8020000c8020000c80200008e
:10024800c8020000c8020000c8020000c80200007e
:10025800c8020000c8020000c8020000c80200006e
:10026800c8020000c8020000c8020000c80200005e
:0c027800c8020000c8020000c80200001c
:020000040000fa
:020000040005f5
:045ff400ffff0000ab
:020000040000fa
:020000040005f5
:045ff000fbff0000b3
:020000040000fa
:020000040005f5
:045fec00bdff0000f5
:020000040000fa
:020000040005f5
:045fe800ffff0000b7
:020000040000fa
:020000040005f5
:045fe400ffff0000bb
:020000040000fa
:020000040005f5
:045fe000cdff0000f1
:020000040000fa
:100c2400434d0000440d00000a000000430a000088
:100c34000054000052590000494e0000470d0000c6
:0c0c44000a000000474b00000a000000fe
:020000040000fa
:100c50000400fa00100798000000eb00000f780075
:100c6000010037001e0fe8001e0090009e00780073
:100c7000808f5000fbff35000080fa000000060066
:100c80000000fa00213a800000fe2f000080600082
:100c9000203a880040062000edff0700313a80002e
:100ca00000e02f0080806000400420000080700081
:100cb000303a880040062000e5ff0700213a800016
:100cc000f0f32f0000806000203a880040062000ea
:100cd000dfff07004567a90040062000dcff070092
:100ce000213a8000f0ff280000806000203a880050
:100cf00040062000d6ff07004567a80040062000f8
:100d0000d3ff07000080fa00000006000000fa0090
:100d1000c3e8a8000080fa00000006000000fa0006
:100d200005e1a90005a1a90004c1a90021088000ce
:100d3000f0fc2f0000806000200888000441a9001a
:100d40000421a9000000eb000008880000352c00f9
:100d50001008880001428000f0ff280080806000b9
:100d60000000240000807000004288000068a90094
:100d70002068a8000080fa00000006000400fa00c5
:100d8000100798001e0090009dff0700000f7800dc
:100d90000e003700000000009111800000202000ac
:100da00000806000e00f5000fbff3a001e00900042
:100db000104078000000fb00a01188001e00900089
:100dc0000000e800100798001e0fe9001e007800e0
:100dd000e00f5000efff3a0000000000911180008a
:100de0000010200000806000e00f5000fbff320088
:100df0000000eb000080fa00000006000000fa008e
:100e00000e0ea9000e2ea900014ea90000eea900a9
:100e1000000ea900002ea900204ea9000080fa00b3
:100e2000000006000800fa00300798006000b800d3
:100e3000008fbe003e009000cf80de0039fe07002c
:100e40001e01be00d4fd070039fe070014fe070096
:100e5000200798002e0090007dff07000080fa0018
:100e6000000006000200fa00034ea9000000eb009b
:100e7000000f780003003700803e200074ff070059
:100e80001e0fe800703e20009e007800808f50000a
:100e9000f9ff3400034ea8000000eb00000f7800bb
:100ea00003003700803e200069ff07001e0fe800a6
:100eb000703e20009e007800808f5000f9ff3400c3
:100ec000034ea9000000eb00000f7800030037007c
:100ed000803e20005eff07001e0fe800703e2000ed
:100ee0009e007800808f5000f9ff340002eea900c8
:100ef0000000eb00000f780003003700803e200068
:100f000053ff07001e0fe800703e20009e0078008f
:100f1000808f5000f9ff340002eea8000000eb00c3
:100f2000000f780003003700803e200048ff0700d4
:100f30001e0fe800703e20009e007800808f500059
:100f4000f9ff340002eea9000000eb00000f78006a
:100f500003003700803e20003dff07001e0fe80021
:100f6000703e20009e007800808f5000f9ff340012
:100f7000020ea9000000eb00000f7800030037000c
:100f8000803e200032ff07001e0fe800703e200068
:100f90009e007800808f5000f9ff3400020ea800f8
:100fa0000000eb00000f780003003700803e2000b7
:100fb00027ff07001e0fe800703e20009e0078000b
:100fc000808f5000f9ff3400020ea9000000eb00f2
:100fd000000f780003003700803e20001cff070050
:100fe0001e0fe800703e20009e007800808f5000a9
:100ff000f9ff3400022ea9000000eb00000f78007a
:1010000003003700803e200011ff07001e0fe8009c
:10101000703e20009e007800808f5000f9ff340061
:10102000022ea8000000eb00000f7800030037003c
:10103000803e200006ff07001e0fe800703e2000e3
:101040009e007800808f5000f9ff3400022ea90026
:101050000000eb00000f780003003700803e200006
:10106000fbfe07001e0fe800703e20009e00780087
:10107000808f5000f9ff3400224ea9000000eb00e1
:10108000000f780003003700803e2000f0fe0700cc
:101090001e0fe800703e20009e007800808f5000f8
:1010a000f9ff3400224ea8000000eb00000f78008a
:1010b00003003700803e2000e5fe07001e0fe80019
:1010c000703e20009e007800808f5000f9ff3400b1
:1010d000224ea9000000eb00000f7800030037004b
:1010e000803e2000dafe07001e0fe800703e200060
:1010f0009e007800808f5000f9ff34000080fa00d5
:10110000000006000a00fa00300798004107980026
:101110000000eb00208188000000eb0010818800b7
:1011200036ff0700034ea80002eea800020ea8003a
:10113000022ea800224ea800d1fe0700f3fe0700f1
:1011400090000700ae000700f4fe070005e1a800cc
:101150000000eb00408188001000200050818800d2
:101160000000000040818000e00f5000fdff3200d1
:10117000020220008000eb00200021008bfe07000f
:101180000000eb0020818800404222004102200044
:1011900010079800210798000e80e800a7000700bc
:1011a00000000000216128002000210089fe0700c6
:1011b000e00f5000fbff3a00006a2800a4fe070081
:1011c000020220008000eb002000210077fe0700d3
:1011d000806128009900070000000000b16128002c
:1011e000200021007bfe0700e00f5000fbff3a00cb
:1011f000006a280096fe07000000eb00000f780050
:101200000d003700020220008000eb0020002100ca
:1012100066fe07004062280088000700000000000a
:1012200002d0bf00e04f5000fdff320002d0bf00ef
:101230000000fb00000f78001e007800e00f500057
:10124000f0ff320007ff07000000eb000080fa000b
:1012500000000600809fbe00821f78003200f80068
:101260000020200090018800000000000000fa002b
:1012700010718000e400600010c0b300e08f5000e7
:10128000010032000040eb000080fb0061006000c4
:101290004200dd0012718000b1ff2f00810061006b
:1012a000008070001071880050818000e10f5000b4
:1012b00007003a00803e2000308188000000eb00eb
:1012c000508188000000eb00408188000d0037004d
:1012d00030818000e00f5000060034003081800033
:1012e0000000e900308188000000eb0040818800a8
:1012f000040037000000eb0030818800100020005f
:10130000408188000068a9000080fa003200f900de
:101310004f0178004f00be0000400600809fbe00d5
:10132000821f78003200f800002020009001880021
:10133000000000000000fa00b011800000407800ba
:1013400000f0b7002281800000d0bf002100210002
:101350008100410080487800208180000000e80082
:1013600020818800100020001081880003c8a90097
:101370000080fa003200f9004f0178004f00be00f3
:10138000004006000000fa0031e2a900811180004f
:10139000f0cf2f0000806000801188008111800054
:1013a00090ff2f0000806000801188003002a900ab
:1013b0003062a90091118000f0f32f0000806000de
:1013c0009011880071428000f08f2f0080806000b3
:1013d00000602000008070007042880003c8a900ef
:1013e00003e8a90023c8a80040022000c01188001b
:1013f00031e2a8003342a8000080fa000000060095
:101400000000fa003136800000f82f008080600074
:10141000c002200000807000303688004134800017
:10142000f00f2c00808060000030200000807000f1
:10143000403488000080fa00000006000400fa0032
:10144000100798001e009000edfd0700000f7800c7
:101450000e003700000000009111800000202000e5
:1014600000806000e00f5000fbff3a001e0090007b
:10147000104078000000fb00a01188001e009000c2
:101480000000e800100798001e0fe9001e00780019
:10149000e00f5000efff3a000000000091118000c3
:1014a0000010200000806000e00f5000fbff3200c1
:0c14b0000000eb000080fa0000000600c5
:020000040000fa
:1014bc00001000002c000000800000002c10000028
:1014cc00200000008200000048656c006c6f20005a
:1014dc00576f72006c6421000000000000000000d7
:1014ec0000000000000000000000000000000000f0
:0814fc000000000000000000e8
:00000001FF
