:020000040000fa
:080000000002040000000000f2
:020000040000fa
:10040000ef0421000eff28000e018800000000000c
:100410000c000700a0972000010020000f0007003b
:10042000000020000000e000020032000000020096
:100430000000000058060200000000000040da0042
:100440000000fe00a00420000000e00002003200d6
:10045000002020009001880000000600a102880012
:10046000800078000000eb001a003700e2804000b6
:1004700054a0b4009101ba00e280400054a0b4003e
:100480009102ba00e280400054a0b4000002eb00e8
:10049000472bde00f507b200a6018800602ce100c2
:1004a00008003a000049eb000201e80002003900b0
:1004b0003420ec0002f0a0008301e900f9ff3e00c7
:1004c000040037006128e100010032000082eb00e7
:1004d000040007001101ba000200e000e3ff3a0047
:1004e0000000060004d0a300e20f49001c00390000
:1004f000810278003549ba000201e80002003900a3
:100500003420ec0002f0a0008301e9000f0032006b
:100510002549ba000201e800020039003420ec004d
:1005200002f0a0008301e900080032000400e000ae
:100530000600320015c9ba000201e80002003900c5
:100540003420ec0002f0a0008301e9008180e80083
:1005500054a0b4000300e000e2ff3a0000000600ef
:100560009102ba00055978008301e900f7ff3200d3
:10057000c82ade00055978008301e900f3ff320044
:100580000400e000f1ff320011d9ba00eeff37009d
:100590000040da000000fe000000fa008001780050
:1005a0000200370081597800040178000202e90056
:1005b000e00f5100fbff3a000080fa000000060047
:1005c0000000fa009041780031c1510004003a0067
:1005d000e0cf5100020032000000e800f9ff3700d0
:1005e0000200fb000080fa00000006000000fa0094
:1005f000800078000041eb00b14f1100fdff3a0090
:100600000080ea00008040000080fa000000060040
:020000040000fa
:10000800c8020000c8020000c8020000c8020000c0
:10001800c8020000c8020000c8020000c8020000b0
:10002800c8020000c8020000c8020000c0070000a3
:10003800c8020000c8020000c8020000c802000090
:10004800c8020000c8020000c8020000c802000080
:10005800c8020000c8020000c8020000c802000070
:10006800c8020000c8020000c8020000c802000060
:10007800c8020000c8020000c8020000c802000050
:10008800c8020000c8020000c8020000c802000040
:10009800c8020000c802000000080000c8020000f2
:1000a800c8020000c8020000c8020000c802000020
:1000b800c8020000c8020000c8020000c802000010
:1000c800c8020000c8020000c8020000c802000000
:1000d800c8020000c8020000c8020000c8020000f0
:1000e800c8020000c8020000c8020000c8020000e0
:1000f800c8020000c8020000c8020000c8020000d0
:10010800c8020000c8020000c8020000c8020000bf
:10011800c8020000c8020000c8020000c8020000af
:10012800c8020000c8020000c8020000c80200009f
:10013800c8020000c8020000c8020000c80200008f
:10014800c8020000c8020000c8020000c80200007f
:10015800c8020000c8020000c8020000c80200006f
:10016800c8020000c8020000c8020000c80200005f
:10017800c8020000c8020000c8020000c80200004f
:10018800c8020000c8020000c8020000c80200003f
:10019800c8020000c8020000c8020000c80200002f
:1001a800c8020000c8020000c8020000c80200001f
:1001b800c8020000c8020000c8020000c80200000f
:1001c800c8020000c8020000c8020000c8020000ff
:1001d800c8020000c8020000c8020000c8020000ef
:1001e800c8020000c8020000c8020000c8020000df
:1001f800c8020000c8020000c8020000c8020000cf
:10020800c8020000c8020000c8020000c8020000be
:10021800c8020000c8020000c8020000c8020000ae
:10022800c8020000c8020000c8020000c80200009e
:10023800c8020000c8020000c8020000c80200008e
:10024800c8020000c8020000c8020000c80200007e
:10025800c8020000c8020000c8020000c80200006e
:10026800c8020000c8020000c8020000c80200005e
:0c027800c8020000c8020000c80200001c
:020000040000fa
:020000040005f5
:045ff400ffff0000ab
:020000040000fa
:020000040005f5
:045ff000fbff0000b3
:020000040000fa
:020000040005f5
:045fec00bdff0000f5
:020000040000fa
:020000040005f5
:045fe8007fff000037
:020000040000fa
:020000040005f5
:045fe400ffff0000bb
:020000040000fa
:020000040005f5
:045fe000cdff0000f1
:020000040000fa
:10061000434d0000440d00000a0000004742000066
:100620000a0000003030000030360000363600008e
:100630003446000041450000363200000d0a00003b
:10064000004300002c30000030300000363600003f
:10065000363400004436000033460000410a0000f2
:100660000054000052590000494e0000470d0000a0
:100670000a0000003030000030360000363600003e
:100680003444000036330000464100000d0a0000eb
:100690000031000000000000414300004b0a000050
:0406a0000000000056
:020000040000fa
:1006a4000400fa00100798000000eb00000f780027
:1006b400010037001e0fe8001e0090009e00780025
:1006c400808f5000fbff35000080fa000000060018
:1006d4000000fa00213a800000fe2f000080600034
:1006e400203a880040062000edff0700313a8000e0
:1006f40000e02f0080806000400420000080700033
:10070400303a880040062000e5ff0700213a8000c7
:10071400f0f32f0000806000203a8800400620009b
:10072400dfff07004567a90040062000dcff070043
:10073400213a8000f0ff280000806000203a880001
:1007440040062000d6ff07004567a80040062000a9
:10075400d3ff07000080fa00000006000000fa0042
:10076400c3e8a8000080fa00000006000000fa00b8
:1007740005e1a90005a1a90004c1a9002108800080
:10078400f0fc2f00808060000002200000807000d8
:10079400200888000441a9000421a9000000eb00fe
:1007a40000088800c0452400100888000142800029
:1007b400f0ff2800808060000000240000807000aa
:1007c400004288000068a9002068a8000080fa00a0
:1007d400000006000400fa00100798001e009000b4
:1007e40081ff0700000f78000e00370000000000b2
:1007f400911180000020200000806000e00f500074
:10080400fbff3a001e009000104078000000fb003f
:10081400a01188001e0090000000e8001007980056
:100824001e0fe9001e007800e00f5000efff3a00b1
:100834000000000091118000001020000080600082
:10084400e00f5000fbff32000000eb000080fa00d4
:10085400000006000000fa0011aea900014ea90034
:1008640000eea90011cea90011eea9000080fa0043
:10087400000006000000fa00000ea8000e0ea800fa
:10088400002ea8000e2ea800104ea8001e4ea80090
:10089400106ea8001e6ea800200ea8002e0ea80040
:1008a4000080fa00000006000000fa00212ea900d2
:1008b400204ea8002e4ea800110ea800112ea9004b
:1008c400132ea8000080fa00000006000200fa00bf
:1008d40013aea9000000eb00000f780003003700fe
:1008e400803e20006eff07001e0fe800703e2000cf
:1008f4009e007800808f5000f9ff340013aea800ea
:100904000000eb00000f780003003700803e200059
:1009140063ff07001e0fe800703e20009e00780071
:10092400808f5000f9ff340013aea9000000eb00e3
:10093400000f780003003700803e200058ff0700b6
:100944001e0fe800703e20009e007800808f50004b
:10095400f9ff3400034ea9000000eb00000f7800fb
:1009640003003700803e20004dff07001e0fe80003
:10097400703e20009e007800808f5000f9ff340004
:10098400034ea8000000eb00000f780003003700be
:10099400803e200042ff07001e0fe800703e20004a
:1009a4009e007800808f5000f9ff3400034ea900a8
:1009b4000000eb00000f780003003700803e2000a9
:1009c40037ff07001e0fe800703e20009e007800ed
:1009d400808f5000f9ff340002eea9000000eb0004
:1009e400000f780003003700803e20002cff070032
:1009f4001e0fe800703e20009e007800808f50009b
:100a0400f9ff340002eea8000000eb00000f7800ac
:100a140003003700803e200021ff07001e0fe8007e
:100a2400703e20009e007800808f5000f9ff340053
:100a340002eea9000000eb00000f7800030037006d
:100a4400803e200016ff07001e0fe800703e2000c5
:100a54009e007800808f5000f9ff340013cea90067
:100a64000000eb00000f780003003700803e2000f8
:100a74000bff07001e0fe800703e20009e00780068
:100a8400808f5000f9ff340013cea8000000eb0063
:100a9400000f780003003700803e200000ff0700ad
:100aa4001e0fe800703e20009e007800808f5000ea
:100ab400f9ff340013cea9000000eb00000f78000a
:100ac40003003700803e2000f5fe07001e0fe800fb
:100ad400703e20009e007800808f5000f9ff3400a3
:100ae40013eea9000000eb00000f780003003700ac
:100af400803e2000eafe07001e0fe800703e200042
:100b04009e007800808f5000f9ff340013eea80097
:100b14000000eb00000f780003003700803e200047
:100b2400dffe07001e0fe800703e20009e007800e4
:100b3400808f5000f9ff340013eea9000000eb0091
:100b4400000f780003003700803e2000d4fe070029
:100b54001e0fe800703e20009e007800808f500039
:100b6400f9ff34000080fa00000006000400fa00d7
:100b74000000eb00000f78000000eb00ba01070052
:100b84000080eb00100798000e80e800c601070003
:100b94009e009000800c2000808f500001003400e3
:100ba4001e0fe80040002000af0107000080eb00aa
:100bb400100798000e80e800bb0107009e0090001b
:100bc400800c2000808f5000040034001e00780048
:100bd400e00f5000010034001e0fe8001e007800f2
:100be400e20f500002003a00034ea9000100370052
:100bf400034ea8000080fa00000006000600fa0078
:100c040010079800210798000000eb00000f7800ff
:100c1400ae009000000120000001780011000900de
:100c24008200d800408188000000eb0050818800d9
:100c340010002000608188000a0037009e009000a8
:100c4400400021005dfe0700e00f500003003a0061
:100c540010002000000f7800020037000000eb00b5
:100c6400000f78001e007800e00f5000f3ff320000
:100c740050818000e00f5000f0ff32001e00780029
:100c84000080fa00000006000000fa0002022000c2
:100c94008000eb00400021003efe07000000eb0056
:100ca400308188000080fa00000006001c00fa0071
:100cb400400f9800510f98000000eb00308188002d
:100cc4000000eb002081880081fe0700a3fe0700de
:100cd400f600070014010700a4fe0700ddfe07006c
:100ce400e4fe07003f010700effe070013aea80073
:100cf400034ea80002eea80013cea80013eea8002d
:100d0400232ea90005e1a80000fa2000d500070061
:100d140013aea900034ea90002eea90013cea90048
:100d24000000000050818000e00f5000fdff320001
:100d340013aea800034ea80002eea80013cea8002c
:100d4400232ea8004006200055fe07008000200046
:100d5400450107004006200051fe07000e80e80010
:100d640051010700400620004dfe0700020220004a
:100d74008000eb004000210006fe07000000eb00ad
:100d84003081880040422200410220002007980060
:100d94003107980064004700f200070000000000db
:100da400813028004000210004fe0700e00f5000bd
:100db400fbff3a004006200039fe07000202200033
:100dc4008000eb0040002100f2fd07000000eb0072
:100dd40030818800e0302800e200070000000000b5
:100de4002131280040002100f4fd0700e00f5000ed
:100df400fbff3a000e0078008e00b000213128007d
:100e04000e000900315f78000007780013aea900d6
:100e14000000eb000080880000808000e10f50009b
:100e240048003200e10f500003003900e20f500087
:100e340049003200f8ff370093ff07001032280002
:100e4400c8000700034ea900017d200010332800cc
:100e54006aff0700000f780010c0b3009e007800fe
:100e6400e08f5000010032000040eb000080fb00e6
:100e7400610060004e00dd0092708000f1ff2b00e5
:100e840081006100008070009070880002003700cb
:100e9400034ea90013eea9009170800000102000f9
:100ea40000806000e00f5000f9ff3200034ea800fc
:100eb40013eea80074ff0700007122006900070008
:100ec4000000eb00000f78001200370068004700b4
:100ed400a400070081bb2000a033280047ff0700bf
:100ee400000f780010c0b3009e007800e08f50001f
:100ef400010032000040eb000080fb004f00dd00e9
:100f040092708000f1ff2700810061000080700072
:100f1400907088001e007800e10f5000ebff3a004b
:100f2400401f20004f00070013aea800034ea80086
:100f340002eea80013cea80013eea80010002000b3
:100f440000808800007d200046000700034ea900b1
:100f540020002000008088009034280081000700d1
:100f640081bb2000c034280024ff0700000f780054
:100f7400803e20003b000700a7ff3700801f780059
:100f84003200f800002020009001880000000000da
:100f94000000fa0060818000e10f500005003a0073
:100fa4000000eb00608188000000eb0050818800a5
:100fb4000d00370040818000e00f5000060034002f
:100fc400408180000000e900408188000000eb00bf
:100fd40050818800040037000000eb004081880045
:100fe40010002000508188000068a9000080fa00e9
:100ff4003200f9004f00780000400600809fbe00d8
:10100400821f78003200f800002020009001880040
:10101400000000000000fa00b011800000407800d9
:1010240002f0b7003281800002d0bf0041002100ed
:101034008100410080487800308180000000e80091
:1010440030818800100020002081880003c8a90096
:101054000080fa003200f9004f0178004f00be0012
:10106400004006000200fa00000f78009e0078009d
:101074000001200000017800110009008200d8005e
:10108400408188000000eb0050818800100020009f
:10109400608188000000000050818000e00f500053
:1010a400fdff32000080fa00000006000000fa0094
:1010b40031e2a90081118000f0cf2f000080600090
:1010c400801188008111800090ff2f000080600053
:1010d400801188003002a9003062a90091118000bb
:1010e400f0f32f00008060009011880071428000ae
:1010f400f08f2f008080600000602000008070006e
:101104007042880003c8a90003e8a90023c8a80006
:1011140040022000c011880031e2a8003342a80038
:101124000080fa00000006000000fa00313680005a
:1011340000f82f0080806000c00220000080700052
:101144003036880041348000f00f2c00808060002d
:101154000030200000807000403488000080fa00d5
:10116400000006000400fa00100798001e0090001a
:101174001dfd0700000f78000e003700000000007e
:10118400911180000020200000806000e00f5000da
:10119400fbff3a001e009000104078000000fb00a6
:1011a400a01188001e0090000000e80010079800bd
:1011b4001e0fe9001e007800e00f5000efff3a0018
:1011c40000000000911180000010200000806000e9
:1011d400e00f5000fbff32000000eb000080fa003b
:1011e400000006000000fa0021e3a9002143a80042
:1011f40011198000f0ff21000080600010198800a0
:1012040025e3a9000040eb0024e3b7004119800066
:1012140000fe2f00008060007000b30040198800b9
:1012240011198000f0cf2f00008060001019880091
:101234002343a9002043a90001198000f0cf2f0007
:1012440000806000001988003303a9001119800090
:1012540030f82f00008060001019880021e3a800f6
:101264000080fa00000006000200fa00000f780077
:1012740021e3a9001e007800004078007f40600050
:101284000080fb007f0060004219800001fe2f00f7
:1012940081006100008070004019880021e3a800eb
:1012a4000080fa00000006000200fa00000f780037
:1012b4002023a80040062000f9fc07002023a900f1
:1012c400000000000019800061006000e00f500081
:1012d400fcff32002003a900001880008000780081
:1012e4001e007800010878000080fa000000060063
:020000040000fa
:1012f400001000002e000000800000002e100000ee
:10130400200000008200000048656c006c6f200023
:10131400576f72006c6421000000000000000000a0
:1013240000000000000000000000000000000000b9
:081334000000000000000000b1
:00000001FF
