:020000040000fa
:080000000002040000000000f2
:020000040000fa
:100400000f0521000eff28000e01880000000000eb
:100410000c00070020142100010020000f0007003d
:10042000000020000000e000020032000000020096
:1004300000000000dc040200000000000040da00c0
:100440000000fe00c00820000000e00002003200b2
:10045000002020009001880000000600a102880012
:10046000800078000000eb001a003700e2804000b6
:1004700054a0b4009101ba00e280400054a0b4003e
:100480009102ba00e280400054a0b4000002eb00e8
:10049000472bde00f507b200a6018800602ce100c2
:1004a00008003a000049eb000201e80002003900b0
:1004b0003420ec0002f0a0008301e900f9ff3e00c7
:1004c000040037006128e100010032000082eb00e7
:1004d000040007001101ba000200e000e3ff3a0047
:1004e0000000060004d0a300e20f49001c00390000
:1004f000810278003549ba000201e80002003900a3
:100500003420ec0002f0a0008301e9000f0032006b
:100510002549ba000201e800020039003420ec004d
:1005200002f0a0008301e900080032000400e000ae
:100530000600320015c9ba000201e80002003900c5
:100540003420ec0002f0a0008301e9008180e80083
:1005500054a0b4000300e000e2ff3a0000000600ef
:100560009102ba00055978008301e900f7ff3200d3
:10057000c82ade00055978008301e900f3ff320044
:100580000400e000f1ff320011d9ba00eeff37009d
:100590000040da000000fe001400200005003700d3
:1005a000f4ff2f00030037004f89de00820178003e
:1005b0001b003700889fbe008a9fbe00841f780002
:1005c0007c0007004f00780011003300f0ff2f007f
:1005d000838f6c0006003b00040565000a00a7003d
:1005e0000800370009f0a6001000200008003700be
:1005f000820f5400838f5c0003003900100020003c
:1006000001003e000000200009f0a7000000ea0001
:100610004f05be004f04be000000e00000000600d1
:10062000881f7800030478000300e00007003d0005
:1006300060001000e080180060011900e0811900de
:1006400002003b0001f02d0003003700040007000a
:1006500008f0a70001f0a0004f0478000000060099
:10066000889fbe008a9fbe00008270000402710055
:1006700004827100260032000004be000200be00a9
:100680006011b8006b092000950220000182cf00a4
:100690000a0039000541b1000082cf00070039008f
:1006a0000541b1000982cf00040039000541b100c5
:1006b0000882cf00010039000541b1000542520017
:1006c000120032000a003b00828171006101640067
:1006d0008100d1000080d3008984d3000884d30036
:1006e0008b05e8000442e800f7ff3a0007003700f6
:1006f0000804440089844c000000480081804800c0
:100700008b05e9000442e900f9ff3a000300070005
:100710004f05be004f04be0000000600810020000f
:10072000618055000b003d000b00200061fe2f0092
:100730000100e1001d00340082817100610164004c
:100740008904d1000884d3000000e800faff3a00d1
:10075000710020006100640003007000020060006e
:100760000900320061044400e0844c000988a500bf
:10077000050032008b05e8006808e10002003a003d
:100780008904d1000884d300f20f20000258e10050
:1007900005003d00c75ddd00f907b20089807500e6
:1007a00008007800000006000bf827008b00780096
:1007b000000005000004be00060007000003be00a4
:1007c0000405be000200be0002000700844f750051
:1007d00000000600c70ade00f107b200f50fb20004
:1007e00008003200e1cf4200020032000170a00098
:1007f00024000500810f700001003200040805008c
:1008000044000500810f700002003a00140005004a
:100810008502e9000000400081c04800fcff3b0069
:100820000170a000240005000000fa00800178009b
:100830000200370081597800040178000202e900c3
:10084000e00f5100fbff3a000080fa0000000600b4
:100850000000fa009041780031c1510004003a00d4
:10086000e0cf5100020032000000e800f9ff37003d
:100870000200fb000080fa00000006000000fa0001
:10088000800078000041eb00b14f1100fdff3a00fd
:100890000080ea00008040000080fa0000000600ae
:020000040000fa
:020000040005f5
:045fe000ddff0000e1
:020000040000fa
:020000040005f5
:045fe400cfff0000eb
:020000040000fa
:020000040005f5
:045fe8007fff000037
:020000040000fa
:020000040005f5
:045fec00bdff0000f5
:020000040000fa
:020000040005f5
:045ff000fbff0000b3
:020000040000fa
:020000040005f5
:045ff400cfff0000db
:020000040000fa
:10000800c8020000c8020000c8020000c8020000c0
:10001800c8020000c8020000c8020000c8020000b0
:10002800c8020000c8020000c8020000160b000049
:10003800c8020000c8020000c8020000c802000090
:10004800c8020000c8020000c8020000c802000080
:10005800c8020000c8020000c8020000c802000070
:10006800c8020000c8020000c8020000c802000060
:10007800c8020000c8020000c8020000c802000050
:10008800c8020000c8020000c8020000c802000040
:10009800c8020000c80200005e0c0000c802000090
:1000a800c8020000c8020000c8020000c802000020
:1000b800c8020000c8020000c8020000c802000010
:1000c800c8020000c8020000c8020000c802000000
:1000d800c8020000c8020000c8020000c8020000f0
:1000e800c8020000c8020000c8020000c8020000e0
:1000f800c8020000c8020000c8020000c8020000d0
:10010800c8020000c8020000c8020000c8020000bf
:10011800c8020000c8020000c8020000c8020000af
:10012800c8020000c8020000c8020000c80200009f
:10013800c8020000c8020000c8020000c80200008f
:10014800c8020000c8020000c8020000c80200007f
:10015800c8020000c8020000c8020000c80200006f
:10016800c8020000c8020000c8020000c80200005f
:10017800c8020000c8020000c8020000c80200004f
:10018800c8020000c8020000c8020000c80200003f
:10019800c8020000c8020000c8020000c80200002f
:1001a800c8020000c8020000c8020000c80200001f
:1001b800c8020000c8020000c8020000c80200000f
:1001c800c8020000c8020000c8020000c8020000ff
:1001d800c8020000c8020000c8020000c8020000ef
:1001e800c8020000c8020000c8020000c8020000df
:1001f800c8020000c8020000c8020000c8020000cf
:10020800c8020000c8020000c8020000c8020000be
:10021800c8020000c8020000c8020000c8020000ae
:10022800c8020000c8020000c8020000c80200009e
:10023800c8020000c8020000c8020000c80200008e
:10024800c8020000c8020000c8020000c80200007e
:10025800c8020000c8020000c8020000c80200006e
:10026800c8020000c8020000c8020000c80200005e
:0c027800c8020000c8020000c80200001c
:020000040000fa
:1008a000434d0000440d00000a00000047420000d4
:1008b0000a000000303000003036000036360000fc
:1008c0003446000041450000363200000d0a0000a9
:1008d000004300002c3000003030000036360000ad
:1008e000363400004436000033460000410a000060
:1008f0000054000052590000494e0000470d00000e
:100900000a000000303000003036000036360000ab
:100910003444000036330000464100000d0a000058
:10092000004800006f7200006e4f00006666000015
:100930000d0a000000410000434b00000a000000c7
:10094000486f0000726e00004f6e00000d0a00003c
:10095000004c000065660000744200006c690000f5
:100960006e6b00000d0a0000005200006967000075
:1009700068740000426c0000696e00006b0d00009e
:100980000a00000048650000616400004c69000036
:1009900067680000747300000d0a00000057000033
:1009a0006970000065720000730d00000a0000000d
:0809b0002424000024000000d3
:020000040000fa
:1009b8001a00fa00881f7800300f9800410f98003d
:1009c8000000eb00000f78000000eb007081880049
:1009d8000000eb00808188000000eb009081880017
:1009e8000000eb00a08188000000eb00b0818800c7
:1009f8000000eb00c08188000000eb00d081880077
:100a08000000eb00e08188000000eb00f081880026
:100a180010002000108288000000eb002081880070
:100a28000000eb0040828800d8030700fa030700a3
:100a38007e0507009c050700fb0307003404070038
:100a480048040700c70507005304070010eea90073
:100a580013aea800232ea90005e1a8000000eb00b2
:100a6800008088000100370000000000008080003e
:100a7800010020004200200003002000820f5000e7
:100a8800838f5800f8ff3e0000060100040037007d
:100a980040003700b3003700cd003700df023700d1
:100aa800580507003082880002eea800a000200048
:100ab800aa030700034ea800a0002000a703070010
:100ac80013aea900a0002000a4030700132ea9005c
:100ad800803e20008f030700132ea80000fa200094
:100ae8008c03070013aea800a00020009b0307009a
:100af8000e0078001e01b000814d28000300090097
:100b0800315f78000007780071004700750507001d
:100b180033050700813e200000452800eb0407004c
:100b2800000f78001e007800e10f50000600320028
:100b3800132ea900803e200076030700132ea8007c
:100b480000712200730307001e007800e10f5000b7
:100b5800e7ff3a0060452800620507002005070006
:100b6800813e2000a0452800d8040700000f780027
:100b78000e0078002e00b000a14528000e000900e4
:100b8800315f78000007780010002000008088009e
:100b9800a3023700120507009046280051050700f8
:100ba800813e200090472800c8040700000f780005
:100bb8001e007800e10f500009003200034ea90022
:100bc800100020007082880002003700a00020007a
:100bd8006203070050828000e10f5000fbff3a00db
:100be8001e007800e10f50000300320000808000f2
:100bf800e00f5000e7ff3a0000808000e00f50004f
:100c080001003a0086023700034ea8000000eb00fe
:100c18007082880002003700a00020004f03070000
:100c280050828000e00f5000fbff3a00803e200019
:100c3800c9040700000f78001e007800e10f50007b
:100c480009003200034ea9001000200070828800bd
:100c580002003700a00020004003070050828000f7
:100c6800e10f5000fbff3a001e007800e10f500032
:100c78000300320000808000e00f5000ebff3a00d4
:100c880000808000e00f500001003a006402370045
:100c9800034ea8000000eb007082880002003700b5
:100ca800a00020002d03070050828000e00f5000b4
:100cb800fbff3a000e80e8000a050700c804070099
:100cc800813e20002048280080040700000f78009b
:100cd8001e007800e10f500009003200034ea90001
:100ce800100020007082880002003700a000200059
:100cf8001a03070050828000e10f5000fbff3a0002
:100d08001e007800e10f50000300320000808000d0
:100d1800e00f5000e7ff3a0000808000e00f50002d
:100d280001003a003e023700034ea8000000eb0025
:100d38007082880002003700a00020000703070027
:100d480050828000e00f5000fbff3a00a000200016
:100d58000203070002eea90020002000008088009e
:100d68002f02370002eea90000828000e10f500038
:100d78000b003a0010492800da040700980407001d
:100d880000000000b149280030002100aefe070035
:100d9800e00f5000fbff32000000eb0000828800eb
:100da8000000eb00808188000000eb009081880043
:100db8000000eb00a08188000000eb00b0818800f3
:100dc80013aea800803e2000e4020700140237009a
:100dd80013aea9005000200003050700c00221003f
:100de8001105070061818000401f2000808f50009e
:100df80003003400808180000000e80080818800c2
:100e080040002000f8040700c00221000605070082
:100e180061818000401f2000808f50000300340053
:100e2800908180000000e800908188001000200078
:100e3800ed040700c0022100fb0407006181800067
:100e4800401f2000808f500003003400a0818000e4
:100e58000000e800a08188000000eb00e204070021
:100e6800c0022100f004070061818000401f2000bb
:100e7800808f500003003400b08180000000e8003b
:100e8800b08188004182800080382100808f500026
:100e9800de01340080818000cf80de00c0fd0700c5
:100ea80018c0b30002002400c3492400bafd07009b
:100eb800e00f500001003c000044eb00e04f5400fc
:100ec8003400320090818000cf80de00b4fd07003e
:100ed80018c0b30002002400c3492400aefd070077
:100ee800e00f500001003c000044eb00e04f5400cc
:100ef80028003200a0818000cf80de00a8fd070016
:100f080018c0b30002002400c3492400a2fd070052
:100f1800e00f500001003c000044eb00e04f54009b
:100f28001c003200b0818000cf80de009cfd0700ed
:100f380018c0b30002002400c349240096fd07002e
:100f4800e00f500001003c000044eb00e04f54006b
:100f58001000320000828000e00f50000d003a00bf
:100f680002eea800004a28005e0407001c040700df
:100f780000000000b14928003000210032fe0700bf
:100f8800e00f5000fbff32001000200000828800b4
:100f98003f00370080818000cf80de0080fd0700a1
:100fa80018c0b30002002400c349240078fd0700dc
:100fb800e00f5000010035000044eb00e04f540002
:100fc8003300320090818000cf80de0074fd07007e
:100fd80018c0b30002002400c34924006cfd0700b8
:100fe800e00f5000010035000044eb00e04f5400d2
:100ff80027003200a0818000cf80de0068fd070056
:1010080018c0b30002002400c349240060fd070093
:10101800e00f5000010035000044eb00e04f5400a1
:101028001b003200b0818000cf80de005cfd07002d
:1010380018c0b30002002400c349240054fd07006f
:10104800e00f5000010035000044eb00e04f540071
:101058000f00320000828000e10f50000c003a00bf
:1010680002eea900104928001e040700dc0307004f
:1010780000000000b149280030002100f2fd0700ff
:10108800e00f5000fbff32000000eb0000828800f8
:1010980080818000cf80de0041fd070018c0b300ca
:1010a80002002400c34924003bfd0700e00f500064
:1010b80001003c000044eb00e04f540037003200d0
:1010c80090818000cf80de0035fd070018c0b30096
:1010d80002002400c34924002dfd0700e00f500042
:1010e800010035000044eb00e04f54002b003200b3
:1010f800a0818000cf80de0029fd070018c0b30062
:1011080002002400c349240021fd0700e00f50001d
:10111800010035000044eb00e04f54001f0032008e
:10112800b0818000cf80de001dfd070018c0b3002d
:1011380002002400c349240015fd0700e00f5000f9
:10114800010035000044eb00e04f5400130032006a
:10115800c0818000e00f500010003a00008280003b
:10116800e00f50000d003a0002eea800904a280057
:10117800dc0307009a03070000000000b1492800bb
:1011880030002100b0fd0700e00f5000fbff3200e7
:1011980010002000c0818800120037008081800084
:1011a800cf80de00fefc070018c0b3000200240058
:1011b800c3492400f6fc0700e00f50000100350089
:1011c8000044eb00e04f540006003200c08180006c
:1011d800e10f500003003a0002eea9000000eb0006
:1011e800c081880080818000cf80de00ecfc070091
:1011f80018c0b30002002400c3492400e4fc07001f
:10120800e00f5000010035000044eb00e04f5400af
:101218003700320090818000cf80de00e0fc0700bc
:1012280018c0b30002002400c3492400dafc0700f8
:10123800e00f500001003c000044eb00e04f540078
:101248002b003200a0818000cf80de00d4fc070094
:1012580018c0b30002002400c3492400ccfc0700d6
:10126800e00f5000010035000044eb00e04f54004f
:101278001f003200b0818000cf80de00c8fc07006c
:1012880018c0b30002002400c3492400c0fc0700b2
:10129800e00f5000010035000044eb00e04f54001f
:1012a80013003200d0818000e00f500010003a0097
:1012b80000828000e00f50000d003a0002eea80006
:1012c800504b280087030700450307000000000073
:1012d800b1492800300021005bfd0700e00f5000f5
:1012e800fbff320010002000d08188001200370078
:1012f80090818000cf80de00a9fc070018c0b300f1
:1013080002002400c3492400a1fc0700e00f50009c
:10131800010035000044eb00e04f540006003200a5
:10132800d0818000e10f500003003a0002eea900ce
:101338000000eb00d081880080818000cf80de0033
:1013480097fc070018c0b30002002400c34924001a
:101358008ffc0700e00f5000010035000044eb004f
:10136800e04f54003700320090818000cf80de00cb
:101378008bfc070018c0b30002002400c3492400f6
:1013880083fc0700e00f5000010035000044eb002b
:10139800e04f54002b003200a0818000cf80de0097
:1013a8007ffc070018c0b30002002400c3492400d2
:1013b80079fc0700e00f500001003c000044eb00fe
:1013c800e04f54001f003200b0818000cf80de0063
:1013d80073fc070018c0b30002002400c3492400ae
:1013e8006bfc0700e00f5000010035000044eb00e3
:1013f800e04f540013003200e0818000e00f5000fd
:1014080010003a0000828000e00f50000d003a0002
:1014180002eea800204c280032030700f002070063
:1014280000000000b14928003000210006fd070037
:10143800e00f5000fbff320010002000e081880020
:1014480012003700a0818000cf80de0054fc070026
:1014580018c0b30002002400c34924004cfc070054
:10146800e00f5000010035000044eb00e04f54004d
:1014780006003200e0818000e10f500003003a00ce
:1014880002eea9000000eb00e08188008081800066
:10149800cf80de0042fc070018c0b3000200240021
:1014a800c34924003afc0700e00f50000100350052
:1014b8000044eb00e04f5400370032009081800078
:1014c800cf80de0036fc070018c0b30002002400fd
:1014d800c34924002efc0700e00f5000010035002e
:1014e8000044eb00e04f54002b003200a081800044
:1014f800cf80de002afc070018c0b30002002400d9
:10150800c349240022fc0700e00f50000100350009
:101518000044eb00e04f54001f003200b08180000f
:10152800cf80de001efc070018c0b30002002400b4
:10153800c349240018fc0700e00f500001003c00dc
:101548000044eb00e04f540013003200f0818000ab
:10155800e00f500010003a0000828000e00f5000b9
:101568000d003a0002eea800f04c2800dd0207004a
:101578009b02070000000000b1492800300021004c
:10158800b1fc0700e00f5000fbff32001000200004
:10159800f081880012003700b0818000cf80de0023
:1015a800fffb070018c0b30002002400c349240051
:1015b800f7fb0700e00f5000010035000044eb0086
:1015c800e04f540006003200f0818000e10f500027
:1015d80003003a0002eea9000000eb00f081880049
:1015e8000000eb00808188000000eb0090818800fb
:1015f8000000eb00a08188000000eb00b0818800ab
:101608000000eb0040828800030037004082800021
:101618000000e80040828800010037000000000058
:1016280012fd37003600f800809fbe00829fbe0082
:10163800849fbe00869fbe003200f8000020200074
:1016480090018800000000000000fa00508180002e
:10165800e10f500005003a000000eb0050818800bf
:101668000000eb00408188000d00370030818000c9
:10167800e00f500006003400308180000000e900cf
:10168800308188000000eb004081880004003700aa
:101698000000eb00308188001000200040818800a5
:1016a800917080000010200000806000e00f500062
:1016b8001d00320000808000e20f5000030032005d
:1016c80000808000e30f500017003a0060002000ff
:1016d800c5020700c0022100d30207006181800013
:1016e800401f2000808f500004003400708180006b
:1016f8000000e80070818800020037000000eb005d
:101708007081880070818000e40f5000030034006d
:1017180030002000008088001000370020002000e2
:10172800008088000d0037009170800000102000b4
:1017380000806000e00f500008003a000080800040
:10174800e20f50000300320000808000e30f5000d9
:1017580002003a00100020000080880010828000fb
:10176800e10f500007003a00260207003082880087
:101778000000eb00108288000000eb002082880047
:101788000d0037002082800080007800b0272900f3
:10179800808f500004003e00208280000000e80096
:1017a80020828800040037000000eb0020828800b7
:1017b8001000200010828800318280000070200014
:1017c800808f500002003c0013cea90002003700b1
:1017d800a00020006100070070828000e10f500027
:1017e80027003a0091708000000820008080600087
:1017f80010c0b300e08f5000010032000040eb0041
:101808000080fb00610060004700dd0092708000ee
:10181800f1f72f008100610000807000907088004f
:1018280050828000e00f500005003a0010002000b0
:1018380050828800903a20006082880014003700a7
:1018480060828000e00f5000040034006082800055
:101858000000e900608288000d0037000000eb00fe
:10186800708288000000eb00508288000000eb00c6
:10187800608288000000eb000080880004003700c8
:101888000000eb00508288000000eb0060828800b6
:101898000068a9000080fa003200f9004f03be007a
:1018a8004f02be004f01be004f00be003600f900d7
:1018b80000400600809fbe00821f78003200f800ba
:1018c8000020200090018800000000000000fa00bd
:1018d800b01180000040780002f0b700228180003b
:1018e80002d0bf003100210081004100804878000b
:1018f800208180000000e8002081880003c8a9003a
:101908000080fa003200f9004f0178004f00be0055
:10191800004006000200fa00000f78009e007800e0
:101928000001200000017800110009008200d800a1
:10193800308188000000eb00408188001000200002
:10194800508188000000000040818000e00f5000b6
:10195800fdff32000080fa00000006000400fa00d3
:10196800100798000000eb00000f78000100370016
:101978001e0fe8001e0090009e007800808f500027
:10198800fbff35000080fa00000006000000fa00a6
:10199800213a800000fe2f0000806000203a880075
:1019a80040062000edff0700313a800000e02f00dc
:1019b800808060004004200000807000303a880079
:1019c80040062000e5ff0700213a8000f0f32f00d1
:1019d80000806000203a880040062000dfff0700f2
:1019e8004567a90040062000dcff0700213a800077
:1019f800f0ff280000806000203a880040062000a0
:101a0800d6ff07004567a80040062000d3ff07005f
:101a18000080fa00000006000000fa00c3e8a800f1
:101a28000080fa00000006000000fa0005e1a900a5
:101a380005a1a90004c1a90021088000f0fc2f001d
:101a4800808060000002200000807000200888006c
:101a58000441a9000421a9000000eb000008880047
:101a6800c04524001008880001428000f0ff2800cb
:101a78008080600000002400008070000042880020
:101a88000068a9002068a8000080fa00000006008d
:101a98000400fa00100798001e00900075fb07006c
:101aa800000f78000e003700000000009111800040
:101ab8000020200000806000e00f5000fbff3a008b
:101ac8001e009000104078000000fb00a011880064
:101ad8001e0090000000e800100798001e0fe900a3
:101ae8001e007800e00f5000efff3a0000000000f1
:101af800911180000010200000806000e00f50006d
:101b0800fbff32000000eb000080fa000000060036
:101b18000000fa0011aea900014ea90000eea900cc
:101b280011cea90011eea90013aea800a000200054
:101b38008aff0700034ea800a000200087ff0700c7
:101b480002eea800a000200084ff070013cea80022
:101b5800a000200081ff070013eea8000080fa0013
:101b6800000006000000fa00000ea8000e0ea800f3
:101b7800002ea8000e2ea800104ea8001e4ea80089
:101b8800106ea8001e6ea800200ea8002e0ea80039
:101b98000080fa00000006000000fa00212ea900cb
:101ba800204ea8002e4ea8001f0ea900110ea80056
:101bb800112ea900132ea8000080fa0000000600cc
:101bc8000200fa0013aea9000000eb00000f780035
:101bd80003003700803e200060ff07001e0fe8006a
:101be800703e20009e007800808f5000f9ff34007e
:101bf80013aea8000000eb00000f780003003700c8
:101c0800803e200055ff07001e0fe800703e2000b0
:101c18009e007800808f5000f9ff340013aea900b1
:101c28000000eb00000f780003003700803e200022
:101c38004aff07001e0fe800703e20009e00780053
:101c4800808f5000f9ff340002eea9000000eb007d
:101c5800000f780003003700803e20003fff070098
:101c68001e0fe800703e20009e007800808f500014
:101c7800f9ff340002eea8000000eb00000f780026
:101c880003003700803e200034ff07001e0fe800e5
:101c9800703e20009e007800808f5000f9ff3400cd
:101ca80002eea9000000eb00000f780003003700e7
:101cb800803e200029ff07001e0fe800703e20002c
:101cc8009e007800808f5000f9ff34000000eb0080
:101cd800000f780003003700803e20001fff070038
:101ce8001e0fe800703e20009e007800808f500094
:101cf800f9ff34000000eb00000f78000300370004
:101d0800803e200015ff07001e0fe800703e2000ef
:101d18009e007800808f5000f9ff34000000eb002f
:101d2800000f780003003700803e20000bff0700fb
:101d38001e0fe800703e20009e007800808f500043
:101d4800f9ff340013cea9000000eb00000f780063
:101d580003003700803e200000ff07001e0fe80048
:101d6800703e20009e007800808f5000f9ff3400fc
:101d780013cea8000000eb00000f78000300370026
:101d8800803e2000f5fe07001e0fe800703e200090
:101d98009e007800808f5000f9ff340013cea90010
:101da8000000eb00000f780003003700803e2000a1
:101db800eafe07001e0fe800703e20009e00780033
:101dc800808f5000f9ff3400034ea9000000eb009b
:101dd800000f780003003700803e2000dffe070078
:101de8001e0fe800703e20009e007800808f500093
:101df800f9ff3400034ea8000000eb00000f780044
:101e080003003700803e2000d4fe07001e0fe800c4
:101e1800703e20009e007800808f5000f9ff34004b
:101e2800034ea9000000eb00000f78000300370004
:101e3800803e2000c9fe07001e0fe800703e20000b
:101e48009e007800808f5000f9ff34000080fa006f
:101e5800000006000400fa000000eb00000f780004
:101e68000000eb00e00007000080eb00100798007e
:101e78000e80e800ec0007009e009000800c200017
:101e8800808f5000010034001e0fe8004000200041
:101e9800d50007000080eb00100798000e80e800ce
:101ea800e10007009e009000800c2000808f500009
:101eb800040034001e007800e00f500001003400d8
:101ec8001e0fe8000080fa00000006000600fa0075
:101ed80010079800210798000000eb00000f780019
:101ee800ae009000000120000001780011000900f8
:101ef8008200d800308188000000eb004081880013
:101f080010002000508188000a0037009e009000d1
:101f1800300021004cfa0700e00f500003003a009f
:101f280010002000000f7800020037000000eb00ce
:101f3800000f78001e007800e00f500003003a0000
:101f480040818000e00f5000f0ff32001e00780052
:101f58000080fa00000006000400fa00100798004c
:101f68000000eb00000f78009e00900000012000a8
:101f780000017800110009008200d8003081880033
:101f88000000eb004081880010002000508188008c
:101f98000a00370091708000001020000080600067
:101fa800e00f50000300320010002000000f7800fe
:101fb800020037000000eb00000f78001e007800d8
:101fc800e00f500003003a0040818000e00f50000d
:101fd800f0ff32001e0078000080fa0000000600c2
:101fe8000000fa00020220008000eb00300021000f
:101ff8000bfa07000000eb00208188000080fa003f
:10200800000006000200fa00232ea800800020002d
:10201800750007000e00780083000700232ea90032
:102028001e0078000080fa00000006000000fa0098
:1020380031e2a90081118000f0cf2f0000806000fc
:10204800801188008111800090ff2f0000806000bf
:10205800801188003002a9003062a9009111800027
:10206800f0f32f000080600090118800714280001a
:10207800f08f2f00808060000060200000807000da
:102088007042880003c8a90003e8a90023c8a80073
:1020980040022000c011880031e2a8003342a800a5
:1020a8000080fa00000006000000fa0031368000c7
:1020b80000f82f0080806000c002200000807000bf
:1020c8003036880041348000f00f2c00808060009a
:1020d8000030200000807000403488000080fa0042
:1020e800000006000400fa00100798001e00900087
:1020f800e0f90700000f78000e003700000000002c
:10210800911180000020200000806000e00f500046
:10211800fbff3a001e009000104078000000fb0012
:10212800a01188001e0090000000e8001007980029
:102138001e0fe9001e007800e00f5000efff3a0084
:102148000000000091118000001020000080600055
:10215800e00f5000fbff32000000eb000080fa00a7
:10216800000006000000fa0021e3a9002143a800ae
:1021780011198000f0ff210000806000101988000c
:1021880025e3a9000040eb0024e3b70041198000d3
:1021980000fe2f00008060007000b3004019880026
:1021a80011198000f0cf2f000080600010198800fe
:1021b8002343a9002043a90001198000f0cf2f0074
:1021c80000806000001988003303a90011198000fd
:1021d80030f82f00008060001019880021e3a80063
:1021e8000080fa00000006000200fa00000f7800e4
:1021f80021e3a9001e007800004078007f406000bd
:102208000080fb007f0060004219800001fe2f0063
:1022180081006100008070004019880021e3a80057
:102228000080fa00000006000200fa00000f7800a3
:102238000068a90005e1a9002023a80040062000a5
:10224800c6fd07002023a900000000000019800037
:1022580061006000e00f5000fcff32002003a9007d
:1022680000188000800078001e00780001087800bf
:0c22780005e1a8000080fa00000006004c
:020000040000fa
:10228400001000004e000000800000004e1000000e
:1022940002000000820000000000000000000000b6
:00000001FF
