:020000040000fa
:080000000002040000000000f2
:020000040000fa
:10040000ef0421000eff28000e018800000000000c
:100410000c000700a0822000010020000f00070050
:10042000000020000000e000020032000000020096
:1004300000000000ba050200000000000040da00e1
:100440000000fe00e00020000000e000020032009a
:10045000002020009001880000000600a102880012
:10046000800078000000eb001a003700e2804000b6
:1004700054a0b4009101ba00e280400054a0b4003e
:100480009102ba00e280400054a0b4000002eb00e8
:10049000472bde00f507b200a6018800602ce100c2
:1004a00008003a000049eb000201e80002003900b0
:1004b0003420ec0002f0a0008301e900f9ff3e00c7
:1004c000040037006128e100010032000082eb00e7
:1004d000040007001101ba000200e000e3ff3a0047
:1004e0000000060004d0a300e20f49001c00390000
:1004f000810278003549ba000201e80002003900a3
:100500003420ec0002f0a0008301e9000f0032006b
:100510002549ba000201e800020039003420ec004d
:1005200002f0a0008301e900080032000400e000ae
:100530000600320015c9ba000201e80002003900c5
:100540003420ec0002f0a0008301e9008180e80083
:1005500054a0b4000300e000e2ff3a0000000600ef
:100560009102ba00055978008301e900f7ff3200d3
:10057000c82ade00055978008301e900f3ff320044
:100580000400e000f1ff320011d9ba00eeff37009d
:100590000040da000000fe000000fa008001780050
:1005a0000200370081597800040178000202e90056
:1005b000e00f5100fbff3a000080fa000000060047
:1005c0000000fa009041780031c1510004003a0067
:1005d000e0cf5100020032000000e800f9ff3700d0
:1005e0000200fb000080fa00000006000000fa0094
:1005f000800078000041eb00b14f1100fdff3a0090
:100600000080ea00008040000080fa000000060040
:020000040000fa
:10000800c8020000c8020000c8020000c8020000c0
:10001800c8020000c8020000c8020000c8020000b0
:10002800c8020000c8020000c8020000ea0500007b
:10003800c8020000c8020000c8020000c802000090
:10004800c8020000c8020000c8020000c802000080
:10005800c8020000c8020000c8020000c802000070
:10006800c8020000c8020000c8020000c802000060
:10007800c8020000c8020000c8020000c802000050
:10008800c8020000c8020000c8020000c802000040
:10009800c8020000c80200002a060000c8020000ca
:1000a800c8020000c8020000c8020000c802000020
:1000b800c8020000c8020000c8020000c802000010
:1000c800c8020000c8020000c8020000c802000000
:1000d800c8020000c8020000c8020000c8020000f0
:1000e800c8020000c8020000c8020000c8020000e0
:1000f800c8020000c8020000c8020000c8020000d0
:10010800c8020000c8020000c8020000c8020000bf
:10011800c8020000c8020000c8020000c8020000af
:10012800c8020000c8020000c8020000c80200009f
:10013800c8020000c8020000c8020000c80200008f
:10014800c8020000c8020000c8020000c80200007f
:10015800c8020000c8020000c8020000c80200006f
:10016800c8020000c8020000c8020000c80200005f
:10017800c8020000c8020000c8020000c80200004f
:10018800c8020000c8020000c8020000c80200003f
:10019800c8020000c8020000c8020000c80200002f
:1001a800c8020000c8020000c8020000c80200001f
:1001b800c8020000c8020000c8020000c80200000f
:1001c800c8020000c8020000c8020000c8020000ff
:1001d800c8020000c8020000c8020000c8020000ef
:1001e800c8020000c8020000c8020000c8020000df
:1001f800c8020000c8020000c8020000c8020000cf
:10020800c8020000c8020000c8020000c8020000be
:10021800c8020000c8020000c8020000c8020000ae
:10022800c8020000c8020000c8020000c80200009e
:10023800c8020000c8020000c8020000c80200008e
:10024800c8020000c8020000c8020000c80200007e
:10025800c8020000c8020000c8020000c80200006e
:10026800c8020000c8020000c8020000c80200005e
:0c027800c8020000c8020000c80200001c
:020000040000fa
:020000040005f5
:045ff400ffff0000ab
:020000040000fa
:020000040005f5
:045ff000fbff0000b3
:020000040000fa
:020000040005f5
:045fec00bdff0000f5
:020000040000fa
:020000040005f5
:045fe8007fff000037
:020000040000fa
:020000040005f5
:045fe400ffff0000bb
:020000040000fa
:020000040005f5
:045fe000cdff0000f1
:020000040000fa
:100610003100000000410000434b000000320000a8
:0c0620000000000033000000000000009b
:020000040000fa
:10062c000400fa00100798000000eb00000f78009f
:10063c00010037001e0fe8001e0090009e0078009d
:10064c00808f5000fbff35000080fa000000060090
:10065c000000fa00213a800000fe2f0000806000ac
:10066c00203a880040062000edff0700313a800058
:10067c0000e02f00808060004004200000807000ab
:10068c00303a880040062000e5ff0700213a800040
:10069c00f0f32f0000806000203a88004006200014
:1006ac00dfff07004567a90040062000dcff0700bc
:1006bc00213a8000f0ff280000806000203a88007a
:1006cc0040062000d6ff07004567a8004006200022
:1006dc00d3ff07000080fa00000006000000fa00bb
:1006ec00c3e8a8000080fa00000006000000fa0031
:1006fc0005e1a90005a1a90004c1a90021088000f9
:10070c00f0fc2f0080806000000220000080700050
:10071c00200888000441a9000421a9000000eb0076
:10072c0000088800c04524001008880001428000a1
:10073c00f0ff280080806000000024000080700022
:10074c00004288000068a9002068a8000080fa0018
:10075c00000006000400fa00100798001e0090002c
:10076c009fff0700000f78000e003700000000000c
:10077c00911180000020200000806000e00f5000ec
:10078c00fbff3a001e009000104078000000fb00b8
:10079c00a01188001e0090000000e80010079800cf
:1007ac001e0fe9001e007800e00f5000efff3a002a
:1007bc0000000000911180000010200000806000fb
:1007cc00e00f5000fbff32000000eb000080fa004d
:1007dc00000006000000fa000e0ea9000e2ea90063
:1007ec00014ea90000eea900000ea900002ea900e0
:1007fc00204ea9000080fa00000006000000fa005c
:10080c0021e3a9002143a80011198000f0ff210069
:10081c00008060001019880025e3a9000040eb005f
:10082c0024e3b70011198000f0cf2f000080600086
:10083c00101988002343a9004119800000fe2f00e5
:10084c00008060007000b300401988002043a900ac
:10085c0001198000f0cf2f00008060000019880083
:10086c003303a9001119800030f82f0000806000bc
:10087c001019880021e3a8000080fa00000006008f
:10088c000200fa00000f78002023a8004006200088
:10089c0063ff07002023a90000000000001980005e
:1008ac0061006000e00f5000fcff32002003a90043
:1008bc0000188000800078001e0078000108780085
:1008cc000080fa00000006000200fa00020ea900e7
:1008dc000000eb00000f780003003700803e200082
:1008ec004fff07001e0fe800703e20009e007800ae
:1008fc00808f5000f9ff3400020ea8000000eb00be
:10090c00000f780003003700803e200044ff0700f2
:10091c001e0fe800703e20009e007800808f500073
:10092c00f9ff3400020ea9000000eb00000f780064
:10093c0003003700803e200039ff07001e0fe8003f
:10094c00703e20009e007800808f5000f9ff34002c
:10095c00022ea9000000eb00000f78000300370006
:10096c00803e20002eff07001e0fe800703e200086
:10097c009e007800808f5000f9ff3400022ea800f2
:10098c000000eb00000f780003003700803e2000d1
:10099c0023ff07001e0fe800703e20009e00780029
:1009ac00808f5000f9ff3400022ea9000000eb00ec
:1009bc00000f780003003700803e200018ff07006e
:1009cc001e0fe800703e20009e007800808f5000c3
:1009dc00f9ff3400224ea9000000eb00000f780054
:1009ec0003003700803e20000dff07001e0fe800bb
:1009fc00703e20009e007800808f5000f9ff34007c
:100a0c00224ea8000000eb00000f78000300370016
:100a1c00803e200002ff07001e0fe800703e200001
:100a2c009e007800808f5000f9ff3400224ea90000
:100a3c000000eb00000f780003003700803e200020
:100a4c00f7fe07001e0fe800703e20009e007800a5
:100a5c00808f5000f9ff3400034ea9000000eb001a
:100a6c00000f780003003700803e2000ecfe0700ea
:100a7c001e0fe800703e20009e007800808f500012
:100a8c00f9ff3400034ea8000000eb00000f7800c3
:100a9c0003003700803e2000e1fe07001e0fe80037
:100aac00703e20009e007800808f5000f9ff3400cb
:100abc00034ea9000000eb00000f78000300370084
:100acc00803e2000d6fe07001e0fe800703e20007e
:100adc009e007800808f5000f9ff340002eea900d0
:100aec000000eb00000f780003003700803e200070
:100afc00cbfe07001e0fe800703e20009e00780021
:100b0c00808f5000f9ff340002eea8000000eb00cb
:100b1c00000f780003003700803e2000c0fe070065
:100b2c001e0fe800703e20009e007800808f500061
:100b3c00f9ff340002eea9000000eb00000f780072
:100b4c0003003700803e2000b5fe07001e0fe800b2
:100b5c00703e20009e007800808f5000f9ff34001a
:100b6c000080fa00000006006e00fa005037980072
:100b7c00613798000000eb00308188000000eb002a
:100b8c0020818800b2fe0700d4fe0700e0000700b9
:100b9c00fe000700d5fe07000eff070017ff070039
:100bac00020ea800022ea800224ea800034ea80098
:100bbc0002eea8000000eb00000f78000e00780099
:100bcc002fff0700fdff3700801f78003200f80070
:100bdc000020200090018800000000000000fa00b6
:100bec0060818000e10f500005003a000000eb002e
:100bfc00608188000000eb00508188000d003700f8
:100c0c0040818000e00f50000600340040818000dd
:100c1c000000e900408188000000eb005081880052
:100c2c00040037000000eb00408188001000200019
:100c3c00508188000068a9000080fa003200f90099
:100c4c004f00780000400600809fbe00821f780095
:100c5c003200f80000202000900188000000000005
:100c6c000000fa00b01180000040780002f0b700dc
:100c7c003281800002d0bf00410021008100410080
:100c8c0080487800308180000000e80030818800c6
:100c9c00100020002081880003c8a9000080fa0001
:100cac003200f9004f0178004f00be0000400600f2
:100cbc000200fa00000f78009e007800000120006e
:100ccc0000017800110009008200d80040818800e2
:100cdc000000eb005081880010002000608188002b
:100cec000000000050818000e00f5000fdff32003a
:100cfc000080fa00000006000600fa0010079800b9
:100d0c00210798000000eb00000f7800ae00900067
:100d1c000001200000017800110009008200d800b9
:100d2c00408188000000eb005081880010002000fa
:100d3c00608188000a0037009e009000400021006e
:100d4c001cfe0700e00f500003003a0010002000ca
:100d5c00000f7800020037000000eb00000f780055
:100d6c001e007800e00f5000f3ff3200508180002d
:100d7c00e00f5000f0ff32001e0078000080fa00f7
:100d8c00000006000000fa00020220008000eb00c8
:100d9c0040002100fdfd07000000eb0030818800c1
:100dac000080fa00000006000000fa00f5ff0700c2
:100dbc008030280084000700034ea9000000eb00df
:100dcc005081880010002000608188000000000025
:100ddc0050818000e00f5000fdff3200034ea80050
:100dec0000000000b130280040002100f1fd070098
:100dfc00e00f5000fbff3a00020ea9000000eb00d0
:100e0c0050818800100020006081880000000000e4
:100e1c0050818000e00f5000fdff3200020ea80050
:100e2c00d8ff0700f030280067000700034ea90028
:100e3c000000eb00508188001000200060818800c9
:100e4c000000000050818000e00f5000fdff3200d8
:100e5c00034ea80000000000b13028004000210023
:100e6c00d4fd0700e00f5000fbff3a00020ea90072
:100e7c000000eb0050818800100020006081880089
:100e8c000000000050818000e00f5000fdff320098
:100e9c00020ea800bbff0700203128004a00070003
:100eac00034ea9000000eb005081880010002000c8
:100ebc00608188000000000050818000e00f50002d
:100ecc00fdff3200034ea80000000000b1302800e6
:100edc0040002100b7fd0700e00f5000fbff3a0077
:100eec00020ea9000000eb005081880010002000c9
:100efc00608188000000000050818000e00f5000ed
:100f0c00fdff3200020ea8000080fa00000006006f
:100f1c000000fa0031e2a90081118000f0cf2f000f
:100f2c0000806000801188008111800090ff2f00ec
:100f3c0000806000801188003002a9003062a90096
:100f4c0091118000f0f32f00008060009011880058
:100f5c0071428000f08f2f008080600000602000c4
:100f6c00008070007042880003c8a90003e8a90043
:100f7c0023c8a80040022000c011880031e2a8005c
:100f8c003342a8000080fa00000006000000fa00be
:100f9c003136800000f82f0080806000c0022000f5
:100fac00008070003036880041348000f00f2c0037
:100fbc008080600000302000008070004034880089
:100fcc000080fa00000006000400fa0010079800e8
:100fdc001e00900082fd0700000f78000e00370005
:100fec0000000000911180000020200000806000b3
:100ffc00e00f5000fbff3a001e00900010407800fc
:10100c000000fb00a01188001e0090000000e8000a
:10101c00100798001e0fe9001e007800e00f50002a
:10102c00efff3a000000000091118000001020003a
:10103c0000806000e00f5000fbff32000000eb006e
:08104c000080fa00000006001c
:020000040000fa
:10105400001000002e000000800000002e10000090
:10106400200000008200000048656c006c6f2000c6
:10107400576f72006c642100000000000000000043
:10108400000000000000000000000000000000005c
:08109400000000000000000054
:00000001FF
