:020000040000fa
:080000000002040000000000f2
:020000040000fa
:100400000f0421000eff28000e01880000000000ec
:100410000c00070080a72000010020000f0007004b
:10042000000020000000e000020032000000020096
:10043000000000006e030200000000000040da002f
:100440000000fe00600620000000e0000200320014
:10045000002020009001880000000600a102880012
:10046000800078000000eb001a003700e2804000b6
:1004700054a0b4009101ba00e280400054a0b4003e
:100480009102ba00e280400054a0b4000002eb00e8
:10049000472bde00f507b200a6018800602ce100c2
:1004a00008003a000049eb000201e80002003900b0
:1004b0003420ec0002f0a0008301e900f9ff3e00c7
:1004c000040037006128e100010032000082eb00e7
:1004d000040007001101ba000200e000e3ff3a0047
:1004e0000000060004d0a300e20f49001c00390000
:1004f000810278003549ba000201e80002003900a3
:100500003420ec0002f0a0008301e9000f0032006b
:100510002549ba000201e800020039003420ec004d
:1005200002f0a0008301e900080032000400e000ae
:100530000600320015c9ba000201e80002003900c5
:100540003420ec0002f0a0008301e9008180e80083
:1005500054a0b4000300e000e2ff3a0000000600ef
:100560009102ba00055978008301e900f7ff3200d3
:10057000c82ade00055978008301e900f3ff320044
:100580000400e000f1ff320011d9ba00eeff37009d
:100590000040da000000fe000000fa008001780050
:1005a0000200370081597800040178000202e90056
:1005b000e00f5100fbff3a000080fa000000060047
:1005c0000000fa009041780031c1510004003a0067
:1005d000e0cf5100020032000000e800f9ff3700d0
:1005e0000200fb000080fa00000006000000fa0094
:1005f000800078000041eb00b14f1100fdff3a0090
:100600000080ea00008040000080fa000000060040
:020000040000fa
:10000800c8020000c8020000c8020000c8020000c0
:10001800c8020000c8020000c8020000c8020000b0
:10002800c8020000c8020000c8020000ee04000078
:10003800c8020000c8020000c8020000c802000090
:10004800c8020000c8020000c8020000c802000080
:10005800c8020000c8020000c8020000c802000070
:10006800c8020000c8020000c8020000c802000060
:10007800c8020000c8020000c8020000c802000050
:10008800c8020000c8020000c8020000c802000040
:10009800c8020000c80200009e040000c802000058
:1000a800c8020000c8020000c8020000c802000020
:1000b800c8020000c8020000c8020000c802000010
:1000c800c8020000c8020000c8020000c802000000
:1000d800c8020000c8020000c8020000c8020000f0
:1000e800c8020000c8020000c8020000c8020000e0
:1000f800c8020000c8020000c8020000c8020000d0
:10010800c8020000c8020000c8020000c8020000bf
:10011800c8020000c8020000c8020000c8020000af
:10012800c8020000c8020000c8020000c80200009f
:10013800c8020000c8020000c8020000c80200008f
:10014800c8020000c8020000c8020000c80200007f
:10015800c8020000c8020000c8020000c80200006f
:10016800c8020000c8020000c8020000c80200005f
:10017800c8020000c8020000c8020000c80200004f
:10018800c8020000c8020000c8020000c80200003f
:10019800c8020000c8020000c8020000c80200002f
:1001a800c8020000c8020000c8020000c80200001f
:1001b800c8020000c8020000c8020000c80200000f
:1001c800c8020000c8020000c8020000c8020000ff
:1001d800c8020000c8020000c8020000c8020000ef
:1001e800c8020000c8020000c8020000c8020000df
:1001f800c8020000c8020000c8020000c8020000cf
:10020800c8020000c8020000c8020000c8020000be
:10021800c8020000c8020000c8020000c8020000ae
:10022800c8020000c8020000c8020000c80200009e
:10023800c8020000c8020000c8020000c80200008e
:10024800c8020000c8020000c8020000c80200007e
:10025800c8020000c8020000c8020000c80200006e
:10026800c8020000c8020000c8020000c80200005e
:0c027800c8020000c8020000c80200001c
:020000040000fa
:020000040005f5
:045ff400ffff0000ab
:020000040000fa
:020000040005f5
:045ff000fbff0000b3
:020000040000fa
:020000040005f5
:045fec00bdff0000f5
:020000040000fa
:020000040005f5
:045fe8007fff000037
:020000040000fa
:020000040005f5
:045fe400ffff0000bb
:020000040000fa
:020000040005f5
:045fe000cdff0000f1
:020000040000fa
:10061000303000003036000036360000344600002e
:1006200041450000363200000d0a0000004c000079
:1006300065660000744200006c6900006e6b00008b
:100640000d0a000000520000696700006874000095
:10065000426c0000696e00006b0d00000a00000093
:1006600048650000616400004c6900006768000094
:10067000747300000d0a000000570000697000004c
:1006800065720000730d00000a000000486f000052
:10069000726e00004f6e00000d0a0000004800005e
:1006a0006f7200006e4f0000666600000d0a0000c9
:1006b00000300000303000003636000036340000d4
:1006c0004436000033460000410d00000a000000df
:0c06d000414300004b0a00000000000045
:020000040000fa
:1006dc002200fa00700f9800011798000000eb0040
:1006ec00408188000000eb00508188000000eb0086
:1006fc00608188000000eb00708188000000eb0036
:10070c00f08188000000eb00c08188000000eb0045
:10071c00d08188000000eb00e0818800b301070065
:10072c00df0107001e0307003c030700e001070080
:10073c001902070010cea900112ea900b60207005d
:10074c0005e1a80011e1a8000000eb000080880082
:10075c00010037000000000000808000e00f500016
:10076c0005003200e10f500013003200faff370091
:10077c00140207000100370000000000813028003f
:10078c00300021008bff0700e00f5000f8ff3a000b
:10079c001302070085000700903528000e000900a1
:1007ac00305f7800fe00b1000e00780028030700cf
:1007bc00100020000080880080818000e10f500034
:1007cc00e4ff3a00713128003000210079ff070066
:1007dc00e00f500008003a0050818000e00f5000fc
:1007ec0003003a00100020005081880002003700fe
:1007fc000000eb00508188003132280030002100cd
:10080c006cff0700e00f500008003a006081800088
:10081c00e00f500003003a001000200060818800b7
:10082c00020037000000eb006081880001332800d3
:10083c00300021005fff0700e00f50000c003a0071
:10084c004181800010002000e08f50000100320038
:10085c000000eb004081880040818000e00f5000d8
:10086c0002003a00de01070001003700d501070045
:10087c00d1332800300021004eff0700e00f50005c
:10088c000d003a0070818000e30f500005003a0023
:10089c0080892000304888000000eb0070818800bf
:1008ac0005003700004b2000304888007081800024
:1008bc000000e800708188006134280030002100bd
:1008cc003cff0700e00f500001003a006a010700ee
:1008dc00f13428003000210036ff0700e00f5000f3
:1008ec0001003a0069010700813028003000210026
:1008fc0030ff0700e00f500008003a008e0078002f
:10090c00fe00b000903528000e000900305f780022
:10091c00010778006f004700cd0207002300070095
:10092c00eb0207000000eb00808188008aff370093
:10093c00809fbe00821f78003200f800002020004b
:10094c0090018800000000000000fa00b011800047
:10095c000040780002f0b7002281800002d0bf0076
:10096c003100210081004100804878002081800006
:10097c000000e8002081880002d0bf00ea4f500040
:10098c0002003a0010002000808188001000200036
:10099c003081880003c8a9000080fa003200f900f9
:1009ac004f0178004f00be00004006000000fa0026
:1009bc00020220008000eb0030002100f3fe070053
:1009cc000000eb00208188000080fa000000060087
:1009dc003600f800809fbe00829fbe00849fbe0040
:1009ec00869fbe003200f800002020009001880095
:1009fc00000000000000fa00c0818000f90f5000d8
:100a0c005e00340050818000e10f500016003a0067
:100a1c0060818000e10f500013003a0011718000da
:100a2c000020200000806000e00f50000700320022
:100a3c00a0002000e1000700232ea900a000200048
:100a4c00de000700230ea90049003700a00020009b
:100a5c00da000700232ea800a0002000d700070012
:100a6c00230ea8004200370050818000e10f500097
:100a7c0018003a0060818000e00f500015003a0029
:100a8c00a0002000cd000700117180000020200084
:100a9c008080600010c0b300e08f50000100320075
:100aac000040eb000080fb00610060004900dd00ad
:100abc0012718000f1df2f00810061000080700056
:100acc0010718800a0002000bc000700230ea900b4
:100adc002700370050818000e00f500018003a00ca
:100aec0060818000e10f500015003a00a00020004a
:100afc00b20007001171800000102000808060009f
:100b0c0010c0b300e08f5000010032000040eb0039
:100b1c000080fb00610060004800dd001271800065
:100b2c00f1ef2f00810061000080700010718800cf
:100b3c00a0002000a1000700232ea9000c00370004
:100b4c0050818000e00f500009003a006081800065
:100b5c00e00f500006003a00a000200097000700ac
:100b6c00232ea900a000200094000700230ea9004a
:100b7c000000eb00c081880003003700c0818000ba
:100b8c000000e800c081880070818000e00f5000f8
:100b9c0007003a00004b200030488800100020006d
:100bac00f08188000000eb00e081880053003700e2
:100bbc0070818000e10f500019003a00e181800043
:100bcc0040062000808f500011003400f08180001e
:100bdc00e10f500007003a0080892000304888005f
:100bec000000eb00f08188000000eb00e081880041
:100bfc0042003700004b20003048880010002000d5
:100c0c00f08188000000eb00e08188003b00370099
:100c1c00e08180000000e800e081880037003700a8
:100c2c0070818000e20f500019003a00e1818000d1
:100c3c00b0042000808f500011003400f08180003f
:100c4c00e10f500007003a008089200030488800ee
:100c5c000000eb00f08188000000eb00e0818800d0
:100c6c0026003700004b2000304888001000200080
:100c7c00f08188000000eb00e08188001f00370045
:100c8c00e08180000000e800e08188001b00370054
:100c9c0070818000e30f500018003a00e181800061
:100cac0020032000808f500011003400f081800060
:100cbc00e10f500007003a0080892000304888007e
:100ccc000000eb00f08188000000eb00e081880060
:100cdc000a003700004b200030488800100020002c
:100cec00f08188000000eb00e081880003003700f1
:100cfc00e08180000000e800e081880090818000a5
:100d0c00e10f500005003a000000eb0090818800d4
:100d1c000000eb00b08188000d003700a08180003e
:100d2c00e00f500006003400a08180000000e900b4
:100d3c00a08188000000eb00b0818800040037001f
:100d4c000000eb00a081880010002000b08188001a
:100d5c000068a9000080fa003200f9004f03be00c1
:100d6c004f02be004f01be004f00be003600f9001e
:100d7c00004006000200fa00000f78009e00780088
:100d8c000001200000017800110009008200d80049
:100d9c00a08188000000eb00b081880010002000ca
:100dac009081880000000000b0818000e00f5000ae
:100dbc00fdff32000080fa00000006000400fa007b
:100dcc00100798000000eb00000f780001003700be
:100ddc001e0fe8001e0090009e007800808f5000cf
:100dec00fbff35000080fa00000006000000fa004e
:100dfc00213a800000fe2f0000806000203a88001d
:100e0c0040062000edff0700313a800000e02f0083
:100e1c00808060004004200000807000303a880020
:100e2c0040062000e5ff0700213a8000f0f32f0078
:100e3c0000806000203a880040062000dfff070099
:100e4c004567a90040062000dcff0700213a80001e
:100e5c00f0ff280000806000203a88004006200047
:100e6c00d6ff07004567a80040062000d3ff070007
:100e7c000080fa00000006000000fa00007d20004f
:100e8c00804888000080fa00000006000000fa008c
:100e9c0000fa2000804888000080fa00000006005c
:100eac000000fa00c3e8a8000080fa000000060069
:100ebc000000fa0005e1a90005a1a90004c1a900e0
:100ecc0021088000f0fc2f008080600000022000d0
:100edc0000807000200888000441a9000421a900aa
:100eec000000eb0000088800c045240010088800b2
:100efc0001428000f0ff2800808060000000240088
:100f0c0000807000004288000068a9002068a800da
:100f1c000080fa00000006000400fa001007980098
:100f2c001e009000aefd0700000f78000e00370089
:100f3c000000000091118000002020000080600063
:100f4c00e00f5000fbff3a001e00900010407800ac
:100f5c000000fb00a01188001e0090000000e800bb
:100f6c00100798001e0fe9001e007800e00f5000db
:100f7c00efff3a00000000009111800000102000eb
:100f8c0000806000e00f5000fbff32000000eb001f
:100f9c000080fa00000006000000fa0020cea90034
:100fac0020eea900210ea900212ea90022eea900f5
:100fbc0022cea900232ea900230ea9000080fa003e
:100fcc00000006000000fa0022cea8004006200017
:100fdc007aff070022eea8000080fa00000006004d
:100fec000000fa0022cea9004006200073ff070083
:100ffc0022eea9000080fa00000006000200fa00b0
:10100c0022cea9000000eb00000f7800030037008f
:10101c00803e200069ff07001e0fe800703e200094
:10102c009e007800808f5000f9ff340022cea8007b
:10103c000000eb00000f780003003700803e20001a
:10104c005eff07001e0fe800703e20009e00780037
:10105c00808f5000f9ff340022cea9000000eb0075
:10106c00000f780003003700803e200053ff07007c
:10107c001e0fe800703e20009e007800808f50000c
:10108c00f9ff340022eea9000000eb00000f7800fd
:10109c0003003700803e200048ff07001e0fe800c9
:1010ac00703e20009e007800808f5000f9ff3400c5
:1010bc0022eea8000000eb00000f780003003700c0
:1010cc00803e20003dff07001e0fe800703e200010
:1010dc009e007800808f5000f9ff340022eea900aa
:1010ec000000eb00000f780003003700803e20006a
:1010fc0032ff07001e0fe800703e20009e007800b3
:10110c00808f5000f9ff3400230ea9000000eb0083
:10111c00000f780003003700803e200027ff0700f7
:10112c001e0fe800703e20009e007800808f50005b
:10113c00f9ff3400230ea8000000eb00000f78002c
:10114c0003003700803e20001cff07001e0fe80044
:10115c00703e20009e007800808f5000f9ff340014
:10116c00230ea9000000eb00000f780003003700ed
:10117c00803e200011ff07001e0fe800703e20008b
:10118c009e007800808f5000f9ff3400232ea900b8
:10119c000000eb00000f780003003700803e2000b9
:1011ac0006ff07001e0fe800703e20009e0078002e
:1011bc00808f5000f9ff3400232ea8000000eb00b4
:1011cc00000f780003003700803e2000fbfe070074
:1011dc001e0fe800703e20009e007800808f5000ab
:1011ec00f9ff3400232ea9000000eb00000f78005b
:1011fc0003003700803e2000f0fe07001e0fe800c1
:10120c00703e20009e007800808f5000f9ff340063
:10121c000080fa00000006000000fa002134800073
:10122c0000fc2f00008060000040a00020348800eb
:10123c0031348000f00f2c00808060000010210001
:10124c0000807000303488000148800080ff2f003f
:10125c0000806000004888005148800080ff2f000b
:10126c0000806000504888000000eb0000488800b7
:10127c000000eb00104888000000eb00504888008c
:10128c000000eb006048880001488000f03f2e0011
:10129c00008060000048880051488000f03f2e001c
:1012ac008080600000402000008070005048880062
:1012bc001148800000fe2f0000806000c000b300c9
:1012cc00104888006148800000fe2f0000806000fc
:1012dc00d000b300604888000389a8000d89a800dd
:1012ec000148800080ff2f00008060006000b30088
:1012fc00004888005148800080ff2f00008060006b
:10130c006000b30050488800007d20003048880001
:10131c000000eb008048880000e9a9000109a90041
:10132c000ae9a9000b09a90011e1a90013e1a90020
:10133c001021a9001221a90010c1a90012c1a900f5
:10134c0081088000f0fc2f008080600000022000eb
:10135c00008070008008880091088000f0fc2f004d
:10136c0080806000000220000080700090088800df
:10137c0000fa20006008880000fa2000700888003d
:10138c000000eb00300888000000eb0050088800db
:10139c0011e1a80013e1a8000080fa00000006008b
:1013ac000000fa0031e2a90081118000f0cf2f007b
:1013bc0000806000801188008111800090ff2f0058
:1013cc0000806000801188003002a9003062a90002
:1013dc0091118000f0f32f000080600090118800c4
:1013ec0071428000f08f2f00808060000060200030
:1013fc00008070007042880003c8a90003e8a900af
:10140c0023c8a80040022000c011880031e2a800c7
:10141c003342a8000080fa00000006000000fa0029
:10142c003136800000f82f00008060008001b3008e
:10143c00303688001134800000fc2f0000806000e2
:10144c003000b300103488000080fa000000060061
:10145c000400fa00100798001e00900060fc0700c2
:10146c00000f78000e003700000000009111800082
:10147c000020200000806000e00f5000fbff3a00cd
:10148c001e009000104078000000fb00a0118800a6
:10149c001e0090000000e800100798001e0fe900e5
:1014ac001e007800e00f5000efff3a000000000033
:1014bc00911180000010200000806000e00f5000af
:1014cc00fbff32000000eb000080fa000000060079
:1014dc000000fa0080362800ddff07000080fa00cb
:0414ec0000000600f6
:020000040000fa
:1014f000001000004000000080000000000000001c
:00000001FF
