:020000040000fa
:080000000002040000000000f2
:020000040000fa
:100400000f0021000eff28000e01880000000000f0
:100410000c00070020382000010020000f0007001a
:10042000000020000000e000020032000000020096
:100430000000000076030200000000000040da0027
:100440000000fe00000020000000e000020032007a
:10045000000020009001880000000600a102880032
:10046000800078000000eb001a003700e2804000b6
:1004700054a0b4009101ba00e280400054a0b4003e
:100480009102ba00e280400054a0b4000002eb00e8
:10049000472bde00f507b200a6018800602ce100c2
:1004a00008003a000049eb000201e80002003900b0
:1004b0003420ec0002f0a0008301e900f9ff3e00c7
:1004c000040037006128e100010032000082eb00e7
:1004d000040007001101ba000200e000e3ff3a0047
:1004e0000000060004d0a300e20f49001c00390000
:1004f000810278003549ba000201e80002003900a3
:100500003420ec0002f0a0008301e9000f0032006b
:100510002549ba000201e800020039003420ec004d
:1005200002f0a0008301e900080032000400e000ae
:100530000600320015c9ba000201e80002003900c5
:100540003420ec0002f0a0008301e9008180e80083
:1005500054a0b4000300e000e2ff3a0000000600ef
:100560009102ba00055978008301e900f7ff3200d3
:10057000c82ade00055978008301e900f3ff320044
:100580000400e000f1ff320011d9ba00eeff37009d
:100590000040da000000fe000000fa008000780051
:1005a0000041eb00b14f1100fdff3a000080ea006e
:0c05b000008040000080fa0000000600ff
:020000040000fa
:10000800c8020000c8020000c8020000c8020000c0
:10001800c8020000c8020000c8020000c8020000b0
:10002800c8020000c8020000c8020000c8020000a0
:10003800c8020000c8020000c8020000c802000090
:020000040000fa
:1005bc000000fa0031e2a90081118000f0cf2f0079
:1005cc0000806000801188008111800090ff2f0056
:1005dc0000806000801188003002a9003062a90000
:1005ec0091118000f0f32f000080600090118800c2
:1005fc0071428000f08f2f0080806000006020002e
:10060c00008070007042880003c8a90003e8a900ac
:10061c0023c8a80040022000c011880031e2a800c5
:10062c003342a8000080fa00000006000000fa0027
:10063c003136800000f82f00008060008001b3008c
:10064c00303688001134800000fc2f0000806000e0
:10065c003000b300103488000080fa00000006005f
:10066c000400fa00100798001e009000c7ff070056
:10067c00000f78000e003700000000009111800080
:10068c000020200000806000e00f5000fbff3a00cb
:10069c001e009000104078000000fb00a0118800a4
:1006ac001e0090000000e800100798001e0fe900e3
:1006bc001e007800e00f5000efff3a000000000031
:1006cc00911180000010200000806000e00f5000ad
:1006dc00fbff32000000eb000080fa000000060077
:1006ec000400fa00000f7800110798000000eb00de
:0806fc000080fa000000060076
:020000040000fa
:0407040000000000f1
:00000001FF
