:020000040000fa
:080000000002040000000000f2
:020000040000fa
:100400008f0221000eff28000e018800000000006e
:100410000c000700a0b12000010020000f00070021
:10042000000020000000e000020032000000020096
:1004300000000000220a0200000000000040da0074
:100440000000fe00e00120000000e0000200320099
:10045000002020009001880000000600a102880012
:10046000800078000000eb001a003700e2804000b6
:1004700054a0b4009101ba00e280400054a0b4003e
:100480009102ba00e280400054a0b4000002eb00e8
:10049000472bde00f507b200a6018800602ce100c2
:1004a00008003a000049eb000201e80002003900b0
:1004b0003420ec0002f0a0008301e900f9ff3e00c7
:1004c000040037006128e100010032000082eb00e7
:1004d000040007001101ba000200e000e3ff3a0047
:1004e0000000060004d0a300e20f49001c00390000
:1004f000810278003549ba000201e80002003900a3
:100500003420ec0002f0a0008301e9000f0032006b
:100510002549ba000201e800020039003420ec004d
:1005200002f0a0008301e900080032000400e000ae
:100530000600320015c9ba000201e80002003900c5
:100540003420ec0002f0a0008301e9008180e80083
:1005500054a0b4000300e000e2ff3a0000000600ef
:100560009102ba00055978008301e900f7ff3200d3
:10057000c82ade00055978008301e900f3ff320044
:100580000400e000f1ff320011d9ba00eeff37009d
:10059000a60a0400000000000040da000000fe008f
:1005a000889fbe008a9fbe008c1f7800a5000700b0
:1005b000ac00330003866c006450e1002e00320072
:1005c0006420e100330032006150e1002f0032006e
:1005d0006120e1003100320085855500eb07b00055
:1005e000090020000804200005003700080444002a
:1005f00089844c000a0031000603430087834b00c6
:100600000001530081815b00f8ff33000203be004c
:100610000800a0000804440089844c00f6ff39005b
:10062000c639dd0083017300010032001300200091
:100630008904d1000884d3000998a3000500320082
:100640000800a7000300a0008904d1000884d3009b
:100650008b05e8008904d1000884d3000001eb0079
:100660000281d2003c00070001f0a1000cf0a700bd
:1006700001f0a000840037006420e1008600320011
:100680000801be000200be00f7ff37006120e10054
:10069000810032006000b800f3ff37000000200046
:1006a00001f82700f0ff37000001be0050000700ee
:1006b0000470a70003f0a1006509b1001600320024
:1006c0000d0035006828e10006003500f0ff2f001e
:1006d000f1ff27000300e00013003b0001002800a9
:1006e0000000050000004000818048008502e9000c
:1006f000fcff3a0008003700f88f420002003c007f
:100700008000eb00000005008100d1000080d300d4
:100710008502e800fcff3a000300e00002003b0015
:1007200060001000e0801800000006004f89de0025
:1007300082017800e00037000001eb00b7000700fd
:10074000040032000200200003f8230001f0a7009b
:100750005400070000000600810020006180550061
:100760000b003d000b00200061fe2f000100e100a6
:100770001d00340082817100610164008904d10090
:100780000884d3000000e800faff3a00710020005e
:100790006100640003007000020060000900320084
:1007a00061044400e0844c000988a5000500320083
:1007b0008b05e8006808e10002003a008904d100d6
:1007c0000884d300f20f20000258e10005003d002c
:1007d000c75ddd00f907b200898075000800780068
:1007e000000006000bf827008b00780000000500d1
:1007f000c70ade00f107b200f50fb20008003200b0
:10080000e1cf4200020032000170a0002400050088
:10081000810f70000100320004080500440005004b
:10082000810f700002003a00140005008502e90003
:100830000000400081c04800fcff3b000170a000a8
:10084000240005000004be00e9ff07000003be000d
:100850000405be000200be00e5ff0700844f7500de
:10086000000006000200be006450e10005003600f2
:100870006420e100020036000968a30001003a008c
:100880000800be000160a0004f0678004f05be00c2
:100890004f04be0000000600f0ff2f00f1ff27000c
:1008a000f9ff370003f0a200889fbe008a9fbe00b8
:1008b0008c1f7800e3ff0700eaff33006450e1007b
:1008c0004f0032006420e1005200320003826c00cd
:1008d00007003b000905d0000306d000820f54003a
:1008e0000c065d0002003900020032008901780028
:1008f000030678008582550004003d000003fd00da
:100900008103fd008502ea008b854200840f72009e
:1009100002003b0060001000e08018006011b80089
:100920000005eb007a28e1000a0039000600780093
:10093000c75ddd00f707b200878075002d00370026
:10094000828171000a017800610560008180d10018
:100950000080d3008502e900f9ff3b000604400057
:100960008784480002003b0060041400e0841c00ff
:100970000988a300070032008a817100828171001a
:10098000610164008904d1000884d3008b05e8006c
:10099000170037000978a30013003a000b00e000ad
:1009a000130034008b05e9000804440089844c00de
:1009b0000a4474000978a3000d003a000b00e0001f
:1009c000070034008b05e9000804440089844c00ca
:1009d00001003a000b0020000978a300f7ff320065
:1009e0000001eb0002003700828171000a017800eb
:1009f00059ff07000cf0a70001f0a000a2ff37008c
:100a00006420e10002003a00838f6c00a2ff3300f3
:100a10000801be000200be009bff3700889fbe0099
:100a20008a9fbe000003be0071ff070085057800a5
:100a300082815200020020006220e10004003a009e
:100a4000f307b100040035007718e1000400350019
:100a50000600be00140037006000b8000f00370029
:100a6000f50f2000faff2f008502d1000a85d30080
:100a70008301e900fcff3b00818462000004650003
:100a8000890f7400f2ff32008582ea000a85ea00cd
:100a900081846200000465002fff070007f0a700b3
:100aa00001f0a0000081eb000200e0004f05be0055
:100ab0004f04be0000000600881f78000304780081
:100ac0000300e00007003d0060001000e080180017
:100ad00060011900e081190002003b0001f02d00c7
:100ae000030037000400070008f0a70001f0a00091
:100af0004f04780000000600889fbe008a9fbe0059
:100b0000008270000402710004827100260032002d
:100b10000004be000200be006011b8006b09200096
:100b2000950220000182cf000a0039000541b10082
:100b30000082cf00070039000541b1000982cf00d3
:100b4000040039000541b1000882cf0001003900de
:100b50000541b10005425200120032000a003b007c
:100b600082817100610164008100d1000080d300a6
:100b70008984d3000884d3008b05e8000442e80090
:100b8000f7ff3a00070037000804440089844c004e
:100b900000004800818048008b05e9000442e9001c
:100ba000f9ff3a00ecfe07004f05be004f04be00ff
:100bb000000006000000fa00800178000200370003
:100bc00081597800040178000202e900e00f510029
:100bd000fbff3a000080fa00000006000000fa0067
:100be0009041780031c1510004003a00e0cf51003b
:100bf000020032000000e800f9ff37000200fb00ad
:100c00000080fa00000006000000fa008000780072
:100c10000041eb00b14f1100fdff3a000080ea00f7
:0c0c2000008040000080fa000000060088
:020000040000fa
:10000800cc020000cc020000cc020000cc020000b0
:10001800cc020000cc020000cc020000cc020000a0
:10002800cc020000cc020000cc020000cc02000090
:10003800cc020000cc020000cc020000cc02000080
:10004800cc020000cc020000cc020000cc02000070
:10005800cc020000cc020000cc020000cc02000060
:10006800cc020000cc020000cc020000cc02000050
:10007800cc020000cc020000cc020000cc02000040
:10008800cc020000cc020000cc020000cc02000030
:10009800cc020000cc020000720a0000cc02000072
:1000a800cc020000cc020000cc020000cc02000010
:1000b800cc020000cc020000cc020000cc02000000
:1000c800cc020000cc020000cc020000cc020000f0
:1000d800cc020000cc020000cc020000cc020000e0
:1000e800cc020000cc020000cc020000cc020000d0
:1000f800cc020000cc020000cc020000cc020000c0
:10010800cc020000cc020000cc020000cc020000af
:10011800cc020000cc020000cc020000cc0200009f
:10012800cc020000cc020000cc020000cc0200008f
:10013800cc020000cc020000cc020000cc0200007f
:10014800cc020000cc020000cc020000cc0200006f
:10015800cc020000cc020000cc020000cc0200005f
:10016800cc020000cc020000cc020000cc0200004f
:10017800cc020000cc020000cc020000cc0200003f
:10018800cc020000cc020000cc020000cc0200002f
:10019800cc020000cc020000cc020000cc0200001f
:1001a800cc020000cc020000cc020000cc0200000f
:1001b800cc020000cc020000cc020000cc020000ff
:1001c800cc020000cc020000cc020000cc020000ef
:1001d800cc020000cc020000cc020000cc020000df
:1001e800cc020000cc020000cc020000cc020000cf
:1001f800cc020000cc020000cc020000cc020000bf
:10020800cc020000cc020000cc020000cc020000ae
:10021800cc020000cc020000cc020000cc0200009e
:10022800cc020000cc020000cc020000cc0200008e
:10023800cc020000cc020000cc020000cc0200007e
:10024800cc020000cc020000cc020000cc0200006e
:10025800cc020000cc020000cc020000cc0200005e
:10026800cc020000cc020000cc020000cc0200004e
:0c027800cc020000cc020000cc02000010
:020000040000fa
:020000040005f5
:045ff400ffff0000ab
:020000040000fa
:020000040005f5
:045ff000fbff0000b3
:020000040000fa
:020000040005f5
:045fec00bdff0000f5
:020000040000fa
:020000040005f5
:045fe8007fff000037
:020000040000fa
:020000040005f5
:045fe400ffff0000bb
:020000040000fa
:020000040005f5
:045fe000cdff0000f1
:020000040000fa
:100c2c00303000003036000036360000344600000c
:100c3c0041450000363200000d0a00000030000073
:100c4c0030300000363600003634000044360000e8
:0c0c5c0033460000410d00000a000000bb
:020000040000fa
:100c68000400fa00100798000000eb00000f78005d
:100c7800010037001e0fe8001e0090009e0078005b
:100c8800808f5000fbff35000080fa00000006004e
:100c98000000fa00213a800000fe2f00008060006a
:100ca800203a880040062000edff0700313a800016
:100cb80000e02f0080806000400420000080700069
:100cc800303a880040062000e5ff0700213a8000fe
:100cd800f0f32f0000806000203a880040062000d2
:100ce800dfff07004567a90040062000dcff07007a
:100cf800213a8000f0ff280000806000203a880038
:100d080040062000d6ff07004567a80040062000df
:100d1800d3ff07000080fa00000006000000fa0078
:100d2800112ea900132ea9000080fa000000060069
:100d38000200fa00132ea8000000eb00000f780054
:100d48000300370080382100c5ff07001e0fe800a8
:100d5800703821009e007800808f5000f9ff340021
:100d6800132ea9000000eb00000f780003003700e5
:100d780080382100baff07001e0fe80070382100f4
:100d88009e007800808f5000f9ff34000080fa0040
:100d9800000006000200fa006004200030488800c5
:100da8000000eb00000f78000300370080382100b6
:100db800abff07001e0fe800703821009e00780086
:100dc800808f5000f9ff3400e0012000304888008f
:100dd8000000eb00000f7800030037008038210086
:100de8009fff07001e0fe800703821009e00780062
:100df800808f5000f9ff34000080fa0000000600e0
:100e08000000fa00c3e8a8000080fa00000006000d
:100e18000000fa0005e1a90005a1a90004c1a90084
:100e280021088000f0fc2f00808060000002200074
:100e380000807000200888000441a9000421a9004e
:100e48000000eb0000088800c04524001008880056
:100e580001428000f0ff280080806000000024002c
:100e680000807000004288000068a9002068a8007f
:100e78000080fa00000006000400fa00100798003d
:100e88001e0090005eff0700000f78000e0037007c
:100e98000000000091118000002020000080600008
:100ea800e00f5000fbff3a001e0090001040780051
:100eb8000000fb00a01188001e0090000000e80060
:100ec800100798001e0fe9001e007800e00f500080
:100ed800efff3a0000000000911180000010200090
:100ee80000806000e00f5000fbff32000000eb00c4
:100ef8000080fa00000006000000fa0020cea900d9
:100f080020eea900210ea900212ea9000080fa00d8
:100f1800000006000800fa00300798006000b800da
:100f2800008fbe003e009000cf80de00fdfd070070
:100f38001e01be0098fd0700fdfd0700d8fd070053
:100f4800200798002e00900045ff07000080fa0057
:100f5800000006000000fa0022cea80022eea80039
:100f68000080fa00000006000000fa0022cea90066
:100f780022eea9000080fa00000006000000fa0036
:100f8800230ea8000080fa00000006000000fa0006
:100f9800230ea9000080fa00000006000000fa00f5
:100fa800232ea8000080fa00000006000000fa00c6
:100fb800232ea9000080fa00000006000200fa00b3
:100fc800eeff07000000eb00000f78000300370079
:100fd800803e200022ff07001e0fe800703e200020
:100fe8009e007800808f5000f9ff3400e7ff07006b
:100ff8000000eb00000f780003003700803e20005f
:1010080017ff07001e0fe800703e20009e007800c2
:10101800808f5000f9ff34000080fa0000000600bd
:101028000200fa00ddff07000000eb00000f780067
:1010380003003700803e200009ff07001e0fe8006c
:10104800703e20009e007800808f5000f9ff340029
:10105800d6ff07000000eb00000f78000300370000
:10106800803e2000fefe07001e0fe800703e2000b4
:101078009e007800808f5000f9ff34000080fa004d
:10108800000006000200fa00c4ff0700bbff0700cb
:101098000000eb00000f780003003700803e2000be
:1010a800effe07001e0fe800703e20009e0078004b
:1010b800808f5000f9ff3400bcff0700b3ff070022
:1010c8000000eb00000f780003003700803e20008e
:1010d800e3fe07001e0fe800703e20009e00780027
:1010e800808f5000f9ff34000080fa0000000600ed
:1010f8000200fa0022cea9000000eb00000f7800e1
:1011080003003700803e2000d5fe07001e0fe800d0
:10111800703e20009e007800808f5000f9ff340058
:1011280022cea8000000eb00000f78000300370073
:10113800803e2000cafe07001e0fe800703e200017
:101148009e007800808f5000f9ff340022cea9005d
:101158000000eb00000f780003003700803e2000fd
:10116800bffe07001e0fe800703e20009e007800ba
:10117800808f5000f9ff340022eea9000000eb0038
:10118800000f780003003700803e2000b4fe0700ff
:101198001e0fe800703e20009e007800808f5000ef
:1011a800f9ff340022eea8000000eb00000f7800e1
:1011b80003003700803e2000a9fe07001e0fe8004c
:1011c800703e20009e007800808f5000f9ff3400a8
:1011d80022eea9000000eb00000f780003003700a2
:1011e800803e20009efe07001e0fe800703e200093
:1011f8009e007800808f5000f9ff3400230ea9006c
:101208000000eb00000f780003003700803e20004c
:1012180093fe07001e0fe800703e20009e00780035
:10122800808f5000f9ff3400230ea8000000eb0067
:10123800000f780003003700803e200088fe07007a
:101248001e0fe800703e20009e007800808f50003e
:10125800f9ff3400230ea9000000eb00000f78000e
:1012680003003700803e20007dfe07001e0fe800c7
:10127800703e20009e007800808f5000f9ff3400f7
:10128800232ea9000000eb00000f780003003700b0
:10129800803e200072fe07001e0fe800703e20000e
:1012a8009e007800808f5000f9ff3400232ea8009c
:1012b8000000eb00000f780003003700803e20009c
:1012c80067fe07001e0fe800703e20009e007800b1
:1012d800808f5000f9ff3400232ea9000000eb0096
:1012e800000f780003003700803e20005cfe0700f6
:1012f8001e0fe800703e20009e007800808f50008e
:10130800f9ff34000080fa00000006000000fa002f
:1013180031e2a90081118000f0cf2f000080600029
:10132800801188008111800090ff2f0000806000ec
:10133800801188003002a9003062a9009111800054
:10134800f0f32f0000806000901188007142800047
:10135800f08f2f0080806000006020000080700007
:101368007042880003c8a90003e8a90023c8a800a0
:1013780040022000c011880031e2a8003342a800d2
:101388000080fa00000006000000fa0031368000f4
:1013980000f82f00008060008001b300303688001c
:1013a8001134800000fc2f00008060003000b30082
:1013b800103488000080fa00000006000400fa00db
:1013c800100798001e0090000dfe0700000f78001f
:1013d8000e0037000000000091118000002020005e
:1013e80000806000e00f5000fbff3a001e009000f4
:1013f800104078000000fb00a01188001e0090003b
:101408000000e800100798001e0fe9001e00780091
:10141800e00f5000efff3a0000000000911180003b
:101428000010200000806000e00f5000fbff320039
:101438000000eb000080fa00000006001400fa002b
:10144800000f9800110f980011fe07006cfe0700ae
:10145800aeff0700ccff07006dfe0700a6fe0700e1
:101468002efe070000712200fdfd07000000eb00c2
:101478000080880000808000e00f500005003200e6
:10148800e10f500013003200faff3700fdfe07009d
:1014980001003700000000006161280030002100d1
:1014a800ccfd0700e00f5000f8ff3a0060aa2000ca
:1014b80000000100506228000e000900305f78002b
:1014c800fe00b1000e007800bcff070010002000ed
:1014d800008088009ffe0700e6ff3700809fbe005f
:1014e800821f78003200f800002020009001880058
:1014f800000000000000fa00b011800000407800f1
:1015080002f0b7002281800002d0bf003100210024
:101518008100410080487800208180000000e800b8
:1015280020818800100020003081880003c8a900ad
:101538000080fa003200f9004f0178004f00be0029
:10154800004006000000fa00020220008000eb00c4
:101558003000210095fd07000000eb002081880085
:101568000080fa00000006000000fa002134800024
:1015780000fc2f00008060000040a000203488009c
:101588000148800080ff2f0000806000004888002c
:101598000000eb00004888000000eb0010488800bd
:1015a80001488000f03f2e0000806000004888005d
:1015b8000148800080ff2f00008060006000b300b9
:1015c800004888001148800000fe2f00008060005d
:1015d800c000b300104888000389a9002003200038
:1015e8003048880000e9a9000109a90011e1a90013
:1015f8001021a90010c1a90081088000f0fc2f006b
:101608008080600000022000008070008008880050
:1016180040062000600888000000eb0030088800c1
:0c16280011e1a8000080fa00000006009c
:020000040000fa
:1016340000100000280000008000000000000000ee
:00000001FF
