:020000040000fa
:080000000002040000000000f2
:020000040000fa
:100400000f0321000eff28000e01880000000000ed
:100410000c000700e0ca2000010020000f000700c8
:10042000000020000000e000020032000000020096
:1004300000000000320a0200000000000040da0064
:100440000000fe00400520000000e0000200320035
:10045000002020009001880000000600a102880012
:10046000800078000000eb001a003700e2804000b6
:1004700054a0b4009101ba00e280400054a0b4003e
:100480009102ba00e280400054a0b4000002eb00e8
:10049000472bde00f507b200a6018800602ce100c2
:1004a00008003a000049eb000201e80002003900b0
:1004b0003420ec0002f0a0008301e900f9ff3e00c7
:1004c000040037006128e100010032000082eb00e7
:1004d000040007001101ba000200e000e3ff3a0047
:1004e0000000060004d0a300e20f49001c00390000
:1004f000810278003549ba000201e80002003900a3
:100500003420ec0002f0a0008301e9000f0032006b
:100510002549ba000201e800020039003420ec004d
:1005200002f0a0008301e900080032000400e000ae
:100530000600320015c9ba000201e80002003900c5
:100540003420ec0002f0a0008301e9008180e80083
:1005500054a0b4000300e000e2ff3a0000000600ef
:100560009102ba00055978008301e900f7ff3200d3
:10057000c82ade00055978008301e900f3ff320044
:100580000400e000f1ff320011d9ba00eeff37009d
:100590000040da000000fe00889fbe008a9fbe0077
:1005a0008c1f7800a5000700ac00330003866c00a8
:1005b0006450e1002e0032006420e100330032007c
:1005c0006150e1002f0032006120e1003100320073
:1005d00085855500eb07b0000900200008042000c5
:1005e000050037000804440089844c000a003100eb
:1005f0000603430087834b000001530081815b00a9
:10060000f8ff33000203be000800a0000804440005
:1006100089844c00f6ff3900c639dd008301730080
:1006200001003200130020008904d1000884d300a7
:100630000998a300050032000800a7000300a000ed
:100640008904d1000884d3008b05e8008904d10017
:100650000884d3000001eb000281d2003c000700b7
:1006600001f0a1000cf0a70001f0a0008400370009
:100670006420e100860032000801be000200be00d6
:10068000f7ff37006120e100810032006000b80010
:10069000f3ff37000000200001f82700f0ff3700cb
:1006a0000001be00500007000470a70003f0a10085
:1006b0006509b100160032000d0035006828e10020
:1006c00006003500f0ff2f00f1ff27000300e000d7
:1006d00013003b000100280000000500000040005e
:1006e000818048008502e900fcff3a0008003700dd
:1006f000f88f420002003c008000eb000000050083
:100700008100d1000080d3008502e800fcff3a00a0
:100710000300e00002003b0060001000e0801800d1
:10072000000006004f89de0082017800e0003700fb
:100730000001eb00b70007000400320002002000b7
:1007400003f8230001f0a700540007000000060092
:1007500081002000618055000b003d000b0020004f
:1007600061fe2f000100e1001d0034008281710054
:10077000610164008904d1000884d3000000e8000e
:10078000faff3a007100200061006400030070006d
:10079000020060000900320061044400e0844c0063
:1007a0000988a500050032008b05e8006808e10013
:1007b00002003a008904d1000884d300f20f20001f
:1007c0000258e10005003d00c75ddd00f907b200f9
:1007d0008980750008007800000006000bf82700eb
:1007e0008b00780000000500c70ade00f107b200a8
:1007f000f50fb20008003200e1cf420002003200e3
:100800000170a00024000500810f7000010032007b
:100810000408050044000500810f700002003a0042
:10082000140005008502e9000000400081c0480076
:10083000fcff3b000170a000240005000004be0086
:10084000e9ff07000003be000405be000200be0071
:10085000e5ff0700844f7500000006000200be009f
:100860006450e100050036006420e100020036001b
:100870000968a30001003a000800be000160a00062
:100880004f0678004f05be004f04be000000060072
:10089000f0ff2f00f1ff2700f9ff370003f0a2005f
:1008a000889fbe008a9fbe008c1f7800e3ff070070
:1008b000eaff33006450e1004f0032006420e100a1
:1008c0005200320003826c0007003b000905d00093
:1008d0000306d000820f54000c065d0002003900b0
:1008e00002003200890178000306780085825500f5
:1008f00004003d000003fd008103fd008502ea00c5
:100900008b854200840f720002003b0060001000e3
:10091000e08018006011b8000005eb007a28e100c3
:100920000a00390006007800c75ddd00f707b20055
:10093000878075002d003700828171000a017800e0
:10094000610560008180d1000080d3008502e9004c
:10095000f9ff3b00060440008784480002003b008a
:1009600060041400e0841c000988a3000700320022
:100970008a81710082817100610164008904d10063
:100980000884d3008b05e800170037000978a3001e
:1009900013003a000b00e000130034008b05e9005f
:1009a0000804440089844c000a4474000978a300b8
:1009b0000d003a000b00e000070034008b05e90051
:1009c0000804440089844c0001003a000b00200018
:1009d0000978a300f7ff32000001eb0002003700a6
:1009e000828171000a01780059ff07000cf0a7000e
:1009f00001f0a000a2ff37006420e10002003a00ed
:100a0000838f6c00a2ff33000801be000200be000d
:100a10009bff3700889fbe008a9fbe000003be0078
:100a200071ff0700850578008281520002002000d6
:100a30006220e10004003a00f307b1000400350031
:100a40007718e100040035000600be0014003700ee
:100a50006000b8000f003700f50f2000faff2f00ec
:100a60008502d1000a85d3008301e900fcff3b0029
:100a70008184620000046500890f7400f2ff320077
:100a80008582ea000a85ea0081846200000465002c
:100a90002fff070007f0a70001f0a0000081eb0086
:100aa0000200e0004f05be004f04be00000006003b
:100ab000881f7800030478000300e00007003d0071
:100ac00060001000e080180060011900e08119004a
:100ad00002003b0001f02d00030037000400070076
:100ae00008f0a70001f0a0004f0478000000060005
:100af000889fbe008a9fbe000082700004027100c1
:100b000004827100260032000004be000200be0014
:100b10006011b8006b092000950220000182cf000f
:100b20000a0039000541b1000082cf0007003900fa
:100b30000541b1000982cf00040039000541b10030
:100b40000882cf00010039000541b1000542520082
:100b5000120032000a003b008281710061016400d2
:100b60008100d1000080d3008984d3000884d300a1
:100b70008b05e8000442e800f7ff3a000700370061
:100b80000804440089844c0000004800818048002b
:100b90008b05e9000442e900f9ff3a00ecfe07008a
:100ba0004f05be004f04be00000006000000fa0022
:100bb0008001780002003700815978000401780034
:100bc0000202e900e00f5100fbff3a000080fa004a
:100bd000000006000000fa009041780031c1510089
:100be00004003a00e0cf5100020032000000e800ab
:100bf000f9ff37000200fb000080fa000000060049
:100c00000000fa00800078000041eb00b14f1100b5
:100c1000fdff3a000080ea00008040000080fa00fa
:040c200000000600ca
:020000040000fa
:10000800c8020000c8020000c8020000c8020000c0
:10001800c8020000c8020000c8020000c8020000b0
:10002800c8020000c8020000c8020000c8020000a0
:10003800c8020000c8020000c8020000c802000090
:10004800c8020000c8020000c8020000c802000080
:10005800c8020000c8020000c8020000c802000070
:10006800c8020000c8020000c8020000c802000060
:10007800c8020000c8020000c8020000c802000050
:10008800c8020000c8020000c8020000c802000040
:10009800c8020000c80200002c0b0000c8020000c3
:1000a800c8020000c8020000c8020000c802000020
:1000b800c8020000c8020000c8020000c802000010
:1000c800c8020000c8020000c8020000c802000000
:1000d800c8020000c8020000c8020000c8020000f0
:1000e800c8020000c8020000c8020000c8020000e0
:1000f800c8020000c8020000c8020000c8020000d0
:10010800c8020000c8020000c8020000c8020000bf
:10011800c8020000c8020000c8020000c8020000af
:10012800c8020000c8020000c8020000c80200009f
:10013800c8020000c8020000c8020000c80200008f
:10014800c8020000c8020000c8020000c80200007f
:10015800c8020000c8020000c8020000c80200006f
:10016800c8020000c8020000c8020000c80200005f
:10017800c8020000c8020000c8020000c80200004f
:10018800c8020000c8020000c8020000c80200003f
:10019800c8020000c8020000c8020000c80200002f
:1001a800c8020000c8020000c8020000c80200001f
:1001b800c8020000c8020000c8020000c80200000f
:1001c800c8020000c8020000c8020000c8020000ff
:1001d800c8020000c8020000c8020000c8020000ef
:1001e800c8020000c8020000c8020000c8020000df
:1001f800c8020000c8020000c8020000c8020000cf
:10020800c8020000c8020000c8020000c8020000be
:10021800c8020000c8020000c8020000c8020000ae
:10022800c8020000c8020000c8020000c80200009e
:10023800c8020000c8020000c8020000c80200008e
:10024800c8020000c8020000c8020000c80200007e
:10025800c8020000c8020000c8020000c80200006e
:10026800c8020000c8020000c8020000c80200005e
:0c027800c8020000c8020000c80200001c
:020000040000fa
:020000040005f5
:045ff400ffff0000ab
:020000040000fa
:020000040005f5
:045ff000fbff0000b3
:020000040000fa
:020000040005f5
:045fec00bdff0000f5
:020000040000fa
:020000040005f5
:045fe8007fff000037
:020000040000fa
:020000040005f5
:045fe400ffff0000bb
:020000040000fa
:020000040005f5
:045fe000cdff0000f1
:020000040000fa
:100c24003030000030360000363600003446000014
:100c340041450000363200000d0a0000004c00005f
:100c440065660000744200006c6900006e6b000071
:100c54000d0a00000052000069670000687400007b
:100c6400426c0000696e00006b0d00000a00000079
:100c740048650000616400004c690000676800007a
:100c8400747300000d0a0000005700006970000032
:100c940065720000730d00000a000000486f000038
:100ca400726e00000d0a00000030000030300000b9
:100cb4003636000036340000443600003346000067
:080cc400410d00000a000000d0
:020000040000fa
:100ccc000400fa00100798000000eb00000f7800f9
:100cdc00010037001e0fe8001e0090009e007800f7
:100cec00808f5000fbff35000080fa0000000600ea
:100cfc000000fa00213a800000fe2f000080600006
:100d0c00203a880040062000edff0700313a8000b1
:100d1c0000e02f0080806000400420000080700004
:100d2c00303a880040062000e5ff0700213a800099
:100d3c00f0f32f0000806000203a8800400620006d
:100d4c00dfff07004567a90040062000dcff070015
:100d5c00213a8000f0ff280000806000203a8800d3
:100d6c0040062000d6ff07004567a800400620007b
:100d7c00d3ff07000080fa00000006000000fa0014
:100d8c00112ea900132ea9000080fa000000060005
:100d9c000200fa00132ea8000000eb00000f7800f0
:100dac000300370080382100c5ff07001e0fe80044
:100dbc00f07022009e007800808f5000f9ff340004
:100dcc00132ea8000000eb00000f78000300370082
:100ddc00409c2000baff07001e0fe800f0702200b4
:100dec009e007800808f5000f9ff34000080fa00dc
:100dfc00000006000200fa008089200030488800bc
:100e0c000000eb00000f78000300370080bb2000cf
:100e1c00abff07001e0fe800f07022009e00780068
:100e2c00808f5000f9ff3400004b200030488800c0
:100e3c000000eb00000f78000300370080bb20009f
:100e4c009fff07001e0fe800f07022009e00780044
:100e5c00808f5000f9ff34000080fa00000006007b
:100e6c000200fa0080892000304888000000eb0066
:100e7c00000f780003003700409c200090ff070013
:100e8c001e0fe800f07022009e007800808f50004a
:100e9c00f9ff3400004b2000304888000000eb00c4
:100eac00000f780003003700409c200084ff0700ef
:100ebc001e0fe800f07022009e007800808f50001a
:100ecc00f9ff34000080fa00000006000200fa006e
:100edc0080892000304888000000eb00000f78006b
:100eec0003003700007d200075ff07001e0fe8008f
:100efc00f0f920009e007800808f5000f9ff34003c
:100f0c00004b2000304888000000eb00000f7800f8
:100f1c0003003700007d200069ff07001e0fe8006a
:100f2c00f0f920009e007800808f5000f9ff34000b
:100f3c000080fa00000006000000fa000000eb0040
:100f4c00304888000080fa00000006000000fa001b
:100f5c00c3e8a8000080fa00000006000000fa00b8
:100f6c0005e1a90005a1a90004c1a9002108800080
:100f7c00f0fc2f00808060000002200000807000d8
:100f8c00200888000441a9000421a9000000eb00fe
:100f9c0000088800c0452400100888000142800029
:100fac00f0ff2800808060000000240000807000aa
:100fbc00004288000068a9002068a8000080fa00a0
:100fcc00000006000400fa00100798001e009000b4
:100fdc0008ff0700000f78000e003700000000002b
:100fec00911180000020200000806000e00f500074
:100ffc00fbff3a001e009000104078000000fb0040
:10100c00a01188001e0090000000e8001007980056
:10101c001e0fe9001e007800e00f5000efff3a00b1
:10102c000000000091118000001020000080600082
:10103c00e00f5000fbff32000000eb000080fa00d4
:10104c00000006000000fa0020cea90020eea90046
:10105c00210ea900212ea9000080fa000000060034
:10106c000800fa00300798006000b800008fbe003e
:10107c003e009000cf80de00a7fd07001e01be00e1
:10108c0042fd0700a7fd070082fd0700200798001e
:10109c002e0090000aff07000080fa0000000600f6
:1010ac000000fa0022cea80022eea8000080fa0070
:1010bc00000006000000fa0022cea90022eea900d2
:1010cc000080fa00000006000000fa00230ea800c1
:1010dc000080fa00000006000000fa00230ea900b0
:1010ec000080fa00000006000000fa00232ea80081
:1010fc000080fa00000006000000fa00232ea90070
:10110c000080fa00000006000200fa00eeff070063
:10111c000000eb00000f780003003700803e200039
:10112c00e7fe07001e0fe800703e20009e007800ce
:10113c00808f5000f9ff3400e7ff07000000eb0040
:10114c00000f780003003700803e2000dcfe070013
:10115c001e0fe800703e20009e007800808f50002b
:10116c00f9ff34000080fa00000006000200fa00cb
:10117c00ddff07000000eb00000f780003003700d4
:10118c00803e2000cefe07001e0fe800703e2000bf
:10119c009e007800808f5000f9ff3400d6ff0700c6
:1011ac000000eb00000f780003003700803e2000a9
:1011bc00c3fe07001e0fe800703e20009e00780062
:1011cc00808f5000f9ff34000080fa000000060008
:1011dc000200fa00c4ff0700bbff07000000eb0091
:1011ec00000f780003003700803e2000b4fe07009b
:1011fc001e0fe800703e20009e007800808f50008b
:10120c00f9ff3400bcff0700b3ff07000000eb0040
:10121c00000f780003003700803e2000a8fe070076
:10122c001e0fe800703e20009e007800808f50005a
:10123c00f9ff34000080fa00000006000200fa00fa
:10124c0022cea9000000eb00000f7800030037004d
:10125c00803e20009afe07001e0fe800703e200022
:10126c009e007800808f5000f9ff340022cea80039
:10127c000000eb00000f780003003700803e2000d8
:10128c008ffe07001e0fe800703e20009e007800c5
:10129c00808f5000f9ff340022cea9000000eb0033
:1012ac00000f780003003700803e200084fe07000a
:1012bc001e0fe800703e20009e007800808f5000ca
:1012cc00f9ff340022eea9000000eb00000f7800bb
:1012dc0003003700803e200079fe07001e0fe80057
:1012ec00703e20009e007800808f5000f9ff340083
:1012fc0022eea8000000eb00000f7800030037007e
:10130c00803e20006efe07001e0fe800703e20009d
:10131c009e007800808f5000f9ff340022eea90067
:10132c000000eb00000f780003003700803e200027
:10133c0063fe07001e0fe800703e20009e00780040
:10134c00808f5000f9ff3400230ea9000000eb0041
:10135c00000f780003003700803e200058fe070085
:10136c001e0fe800703e20009e007800808f500019
:10137c00f9ff3400230ea8000000eb00000f7800ea
:10138c0003003700803e20004dfe07001e0fe800d2
:10139c00703e20009e007800808f5000f9ff3400d2
:1013ac00230ea9000000eb00000f780003003700ab
:1013bc00803e200042fe07001e0fe800703e200019
:1013cc009e007800808f5000f9ff3400232ea90076
:1013dc000000eb00000f780003003700803e200077
:1013ec0037fe07001e0fe800703e20009e007800bc
:1013fc00808f5000f9ff3400232ea8000000eb0072
:10140c00000f780003003700803e20002cfe070000
:10141c001e0fe800703e20009e007800808f500068
:10142c00f9ff3400232ea9000000eb00000f780018
:10143c0003003700803e200021fe07001e0fe8004d
:10144c00703e20009e007800808f5000f9ff340021
:10145c000080fa00000006001400fa00000f98004b
:10146c00110f98000000eb00408188000000eb0099
:10147c00508188000000eb00608188000000eb00c8
:10148c00708188001afe0700b0fe0700b300070049
:10149c00d1000700b1fe0700eafe070037fe070087
:1014ac00fa0007008038210005fe070038fe07000f
:1014bc000000eb000080880000808000e00f5000ee
:1014cc0005003200e10f500012003200faff370025
:1014dc003fff0700010037000000000021612800d9
:1014ec0030002100b8fd0700e00f5000f8ff3a0073
:1014fc0070000700706528000e000900305f78004e
:10150c00fe00b1000e007800c000070010002000a3
:10151c00008088001162280030002100aafd07001d
:10152c00e00f500008003a0050818000e00f50009e
:10153c0003003a00100020005081880002003700a0
:10154c000000eb0050818800d1622800300021009f
:10155c009dfd0700e00f500008003a0060818000fc
:10156c00e00f500003003a0010002000608188005a
:10157c00020037000000eb0060818800a1632800a6
:10158c003000210090fd0700e00f500008003a00e9
:10159c0040818000e00f500003003a001000200052
:1015ac0040818800020037000000eb004081880079
:1015bc00716428003000210083fd0700e00f50000b
:1015cc0017003a0070818000e00f500004003a00d0
:1015dc00708180000000e8007081880010003700e6
:1015ec0070818000e10f500004003a00708180008f
:1015fc000000e800708188000900370070818000cd
:10160c00e20f500004003a00708180000000e800f6
:10161c0070818800020037000000eb0070818800a8
:10162c00016528003000210067fd0700e00f500025
:10163c0003003a00d6fd0700000000009eff3700b3
:10164c001c00070024000700b2ff3700809fbe007b
:10165c00821f78003200f8000020200090018800e2
:10166c00000000000000fa00b0118000004078007b
:10167c0002f0b7002281800002d0bf0031002100af
:10168c008100410080487800208180000000e80043
:10169c0020818800100020003081880003c8a90038
:1016ac000080fa003200f9004f0178004f00be00b4
:1016bc00004006000000fa00020220008000eb004f
:1016cc003000210036fd07000000eb00208188006f
:1016dc000080fa00000006000000fa004081800043
:1016ec00e00f500002003a0072fe070001003700c4
:1016fc006bfe070050818000e10f500001003a00a2
:10170c009afe070060818000e10f500001003a0052
:10171c007dfe070070818000e00f500002003a004f
:10172c0005fe07000b00370070818000e10f5000b0
:10173c0002003a00affd0700060037007081800000
:10174c00e20f500002003a00c5fd0700010037000f
:10175c00defd07000080fa00000006000000fa0021
:10176c0031e2a90081118000f0cf2f0000806000d1
:10177c00801188008111800090ff2f000080600094
:10178c00801188003002a9003062a90091118000fc
:10179c00f0f32f00008060009011880071428000ef
:1017ac00f08f2f00808060000060200000807000af
:1017bc007042880003c8a90003e8a90023c8a80048
:1017cc0040022000c011880031e2a8003342a8007a
:1017dc000080fa00000006000000fa00313680009c
:1017ec0000f82f00008060008001b30030368800c4
:1017fc001134800000fc2f00008060003000b3002a
:10180c00103488000080fa00000006000400fa0082
:10181c00100798001e009000f6fc0700000f7800df
:10182c000e00370000000000911180000020200005
:10183c0000806000e00f5000fbff3a001e0090009b
:10184c00104078000000fb00a01188001e009000e2
:10185c000000e800100798001e0fe9001e00780039
:10186c00e00f5000efff3a000000000091118000e3
:10187c000010200000806000e00f5000fbff3200e1
:10188c000000eb000080fa00000006000000fa00e7
:10189c002134800000fc2f00008060000040a0007c
:1018ac00203488000148800080ff2f0000806000f9
:1018bc00004888000000eb00004888000000eb00a6
:1018cc001048880001488000f03f2e000080600026
:1018dc00004888000148800080ff2f0000806000d5
:1018ec006000b300004888001148800000fe2f0003
:1018fc0000806000c000b300104888000389a80075
:10190c00007d20003048880000e9a9000109a900e9
:10191c0011e1a9001021a90010c1a90081088000c3
:10192c00f0fc2f008080600000022000008070001e
:10193c008008880000fa2000600888000000eb0096
:10194c003008880011e1a8000080fa0000000600b1
:020000040000fa
:10195c0000100000300000008000000000000000bb
:00000001FF
